{
  "contractName": "Adjudicator",
  "abi": [
    {
      "constant": true,
      "inputs": [],
      "name": "challengeExpirationLimit",
      "outputs": [
        {
          "internalType": "uint256",
          "name": "",
          "type": "uint256"
        }
      ],
      "payable": false,
      "stateMutability": "view",
      "type": "function"
    },
    {
      "constant": true,
      "inputs": [
        {
          "internalType": "bytes32",
          "name": "",
          "type": "bytes32"
        }
      ],
      "name": "challenges",
      "outputs": [
        {
          "components": [
            {
              "components": [
                {
                  "internalType": "enum Adjudicator.StateType",
                  "name": "stateType",
                  "type": "uint8"
                },
                {
                  "components": [
                    {
                      "internalType": "address",
                      "name": "alice",
                      "type": "address"
                    },
                    {
                      "internalType": "address",
                      "name": "bob",
                      "type": "address"
                    },
                    {
                      "internalType": "uint256",
                      "name": "channelNonce",
                      "type": "uint256"
                    }
                  ],
                  "internalType": "struct Adjudicator.Channel",
                  "name": "channel",
                  "type": "tuple"
                },
                {
                  "internalType": "uint8",
                  "name": "turnNum",
                  "type": "uint8"
                },
                {
                  "components": [
                    {
                      "internalType": "uint256",
                      "name": "aliceAmount",
                      "type": "uint256"
                    },
                    {
                      "internalType": "uint256",
                      "name": "bobAmount",
                      "type": "uint256"
                    }
                  ],
                  "internalType": "struct Adjudicator.Resolution",
                  "name": "resolution",
                  "type": "tuple"
                },
                {
                  "internalType": "uint256",
                  "name": "timestamp",
                  "type": "uint256"
                },
                {
                  "internalType": "uint256",
                  "name": "opponent_timestamp",
                  "type": "uint256"
                },
                {
                  "internalType": "uint256",
                  "name": "stake",
                  "type": "uint256"
                },
                {
                  "components": [
                    {
                      "internalType": "uint256",
                      "name": "totalLetterCount",
                      "type": "uint256"
                    },
                    {
                      "internalType": "uint256",
                      "name": "opponentTotalLetterCount",
                      "type": "uint256"
                    },
                    {
                      "internalType": "uint256",
                      "name": "gameLetterCount",
                      "type": "uint256"
                    }
                  ],
                  "internalType": "struct Adjudicator.Play",
                  "name": "play",
                  "type": "tuple"
                }
              ],
              "internalType": "struct Adjudicator.State",
              "name": "state",
              "type": "tuple"
            },
            {
              "components": [
                {
                  "internalType": "address",
                  "name": "signer",
                  "type": "address"
                },
                {
                  "internalType": "bytes",
                  "name": "signature",
                  "type": "bytes"
                }
              ],
              "internalType": "struct Adjudicator.Signature",
              "name": "signature",
              "type": "tuple"
            }
          ],
          "internalType": "struct Adjudicator.Move",
          "name": "challengerMove",
          "type": "tuple"
        },
        {
          "components": [
            {
              "components": [
                {
                  "internalType": "enum Adjudicator.StateType",
                  "name": "stateType",
                  "type": "uint8"
                },
                {
                  "components": [
                    {
                      "internalType": "address",
                      "name": "alice",
                      "type": "address"
                    },
                    {
                      "internalType": "address",
                      "name": "bob",
                      "type": "address"
                    },
                    {
                      "internalType": "uint256",
                      "name": "channelNonce",
                      "type": "uint256"
                    }
                  ],
                  "internalType": "struct Adjudicator.Channel",
                  "name": "channel",
                  "type": "tuple"
                },
                {
                  "internalType": "uint8",
                  "name": "turnNum",
                  "type": "uint8"
                },
                {
                  "components": [
                    {
                      "internalType": "uint256",
                      "name": "aliceAmount",
                      "type": "uint256"
                    },
                    {
                      "internalType": "uint256",
                      "name": "bobAmount",
                      "type": "uint256"
                    }
                  ],
                  "internalType": "struct Adjudicator.Resolution",
                  "name": "resolution",
                  "type": "tuple"
                },
                {
                  "internalType": "uint256",
                  "name": "timestamp",
                  "type": "uint256"
                },
                {
                  "internalType": "uint256",
                  "name": "opponent_timestamp",
                  "type": "uint256"
                },
                {
                  "internalType": "uint256",
                  "name": "stake",
                  "type": "uint256"
                },
                {
                  "components": [
                    {
                      "internalType": "uint256",
                      "name": "totalLetterCount",
                      "type": "uint256"
                    },
                    {
                      "internalType": "uint256",
                      "name": "opponentTotalLetterCount",
                      "type": "uint256"
                    },
                    {
                      "internalType": "uint256",
                      "name": "gameLetterCount",
                      "type": "uint256"
                    }
                  ],
                  "internalType": "struct Adjudicator.Play",
                  "name": "play",
                  "type": "tuple"
                }
              ],
              "internalType": "struct Adjudicator.State",
              "name": "state",
              "type": "tuple"
            },
            {
              "components": [
                {
                  "internalType": "address",
                  "name": "signer",
                  "type": "address"
                },
                {
                  "internalType": "bytes",
                  "name": "signature",
                  "type": "bytes"
                }
              ],
              "internalType": "struct Adjudicator.Signature",
              "name": "signature",
              "type": "tuple"
            }
          ],
          "internalType": "struct Adjudicator.Move",
          "name": "opponentMove",
          "type": "tuple"
        },
        {
          "components": [
            {
              "components": [
                {
                  "internalType": "enum Adjudicator.StateType",
                  "name": "stateType",
                  "type": "uint8"
                },
                {
                  "components": [
                    {
                      "internalType": "address",
                      "name": "alice",
                      "type": "address"
                    },
                    {
                      "internalType": "address",
                      "name": "bob",
                      "type": "address"
                    },
                    {
                      "internalType": "uint256",
                      "name": "channelNonce",
                      "type": "uint256"
                    }
                  ],
                  "internalType": "struct Adjudicator.Channel",
                  "name": "channel",
                  "type": "tuple"
                },
                {
                  "internalType": "uint8",
                  "name": "turnNum",
                  "type": "uint8"
                },
                {
                  "components": [
                    {
                      "internalType": "uint256",
                      "name": "aliceAmount",
                      "type": "uint256"
                    },
                    {
                      "internalType": "uint256",
                      "name": "bobAmount",
                      "type": "uint256"
                    }
                  ],
                  "internalType": "struct Adjudicator.Resolution",
                  "name": "resolution",
                  "type": "tuple"
                },
                {
                  "internalType": "uint256",
                  "name": "timestamp",
                  "type": "uint256"
                },
                {
                  "internalType": "uint256",
                  "name": "opponent_timestamp",
                  "type": "uint256"
                },
                {
                  "internalType": "uint256",
                  "name": "stake",
                  "type": "uint256"
                },
                {
                  "components": [
                    {
                      "internalType": "uint256",
                      "name": "totalLetterCount",
                      "type": "uint256"
                    },
                    {
                      "internalType": "uint256",
                      "name": "opponentTotalLetterCount",
                      "type": "uint256"
                    },
                    {
                      "internalType": "uint256",
                      "name": "gameLetterCount",
                      "type": "uint256"
                    }
                  ],
                  "internalType": "struct Adjudicator.Play",
                  "name": "play",
                  "type": "tuple"
                }
              ],
              "internalType": "struct Adjudicator.State",
              "name": "state",
              "type": "tuple"
            },
            {
              "components": [
                {
                  "internalType": "address",
                  "name": "signer",
                  "type": "address"
                },
                {
                  "internalType": "bytes",
                  "name": "signature",
                  "type": "bytes"
                }
              ],
              "internalType": "struct Adjudicator.Signature",
              "name": "signature",
              "type": "tuple"
            }
          ],
          "internalType": "struct Adjudicator.Move",
          "name": "respondedMove",
          "type": "tuple"
        },
        {
          "internalType": "uint256",
          "name": "timestamp",
          "type": "uint256"
        },
        {
          "internalType": "bool",
          "name": "isExpired",
          "type": "bool"
        },
        {
          "internalType": "bool",
          "name": "isSet",
          "type": "bool"
        }
      ],
      "payable": false,
      "stateMutability": "view",
      "type": "function"
    },
    {
      "constant": true,
      "inputs": [
        {
          "internalType": "bytes32",
          "name": "",
          "type": "bytes32"
        }
      ],
      "name": "channelFunds",
      "outputs": [
        {
          "internalType": "bool",
          "name": "hasAliceFunded",
          "type": "bool"
        },
        {
          "internalType": "bool",
          "name": "hasBobFunded",
          "type": "bool"
        },
        {
          "components": [
            {
              "internalType": "uint256",
              "name": "aliceAmount",
              "type": "uint256"
            },
            {
              "internalType": "uint256",
              "name": "bobAmount",
              "type": "uint256"
            }
          ],
          "internalType": "struct Adjudicator.Resolution",
          "name": "resolution",
          "type": "tuple"
        },
        {
          "internalType": "bool",
          "name": "isSet",
          "type": "bool"
        },
        {
          "internalType": "bool",
          "name": "isFunded",
          "type": "bool"
        },
        {
          "internalType": "bool",
          "name": "isWithdrawn",
          "type": "bool"
        }
      ],
      "payable": false,
      "stateMutability": "view",
      "type": "function"
    },
    {
      "constant": true,
      "inputs": [],
      "name": "owner",
      "outputs": [
        {
          "internalType": "address",
          "name": "",
          "type": "address"
        }
      ],
      "payable": false,
      "stateMutability": "view",
      "type": "function"
    },
    {
      "constant": true,
      "inputs": [],
      "name": "returnValue",
      "outputs": [
        {
          "internalType": "enum Adjudicator.StateType",
          "name": "",
          "type": "uint8"
        }
      ],
      "payable": false,
      "stateMutability": "pure",
      "type": "function"
    },
    {
      "constant": true,
      "inputs": [
        {
          "components": [
            {
              "internalType": "enum Adjudicator.StateType",
              "name": "stateType",
              "type": "uint8"
            },
            {
              "components": [
                {
                  "internalType": "address",
                  "name": "alice",
                  "type": "address"
                },
                {
                  "internalType": "address",
                  "name": "bob",
                  "type": "address"
                },
                {
                  "internalType": "uint256",
                  "name": "channelNonce",
                  "type": "uint256"
                }
              ],
              "internalType": "struct Adjudicator.Channel",
              "name": "channel",
              "type": "tuple"
            },
            {
              "internalType": "uint8",
              "name": "turnNum",
              "type": "uint8"
            },
            {
              "components": [
                {
                  "internalType": "uint256",
                  "name": "aliceAmount",
                  "type": "uint256"
                },
                {
                  "internalType": "uint256",
                  "name": "bobAmount",
                  "type": "uint256"
                }
              ],
              "internalType": "struct Adjudicator.Resolution",
              "name": "resolution",
              "type": "tuple"
            },
            {
              "internalType": "uint256",
              "name": "timestamp",
              "type": "uint256"
            },
            {
              "internalType": "uint256",
              "name": "opponent_timestamp",
              "type": "uint256"
            },
            {
              "internalType": "uint256",
              "name": "stake",
              "type": "uint256"
            },
            {
              "components": [
                {
                  "internalType": "uint256",
                  "name": "totalLetterCount",
                  "type": "uint256"
                },
                {
                  "internalType": "uint256",
                  "name": "opponentTotalLetterCount",
                  "type": "uint256"
                },
                {
                  "internalType": "uint256",
                  "name": "gameLetterCount",
                  "type": "uint256"
                }
              ],
              "internalType": "struct Adjudicator.Play",
              "name": "play",
              "type": "tuple"
            }
          ],
          "internalType": "struct Adjudicator.State",
          "name": "state",
          "type": "tuple"
        }
      ],
      "name": "hash",
      "outputs": [
        {
          "internalType": "bytes32",
          "name": "",
          "type": "bytes32"
        }
      ],
      "payable": false,
      "stateMutability": "pure",
      "type": "function"
    },
    {
      "constant": true,
      "inputs": [
        {
          "components": [
            {
              "internalType": "address",
              "name": "alice",
              "type": "address"
            },
            {
              "internalType": "address",
              "name": "bob",
              "type": "address"
            },
            {
              "internalType": "uint256",
              "name": "channelNonce",
              "type": "uint256"
            }
          ],
          "internalType": "struct Adjudicator.Channel",
          "name": "channel",
          "type": "tuple"
        }
      ],
      "name": "hash",
      "outputs": [
        {
          "internalType": "bytes32",
          "name": "",
          "type": "bytes32"
        }
      ],
      "payable": false,
      "stateMutability": "pure",
      "type": "function"
    },
    {
      "constant": true,
      "inputs": [
        {
          "internalType": "bytes32",
          "name": "messageHash",
          "type": "bytes32"
        },
        {
          "components": [
            {
              "internalType": "address",
              "name": "signer",
              "type": "address"
            },
            {
              "internalType": "bytes",
              "name": "signature",
              "type": "bytes"
            }
          ],
          "internalType": "struct Adjudicator.Signature",
          "name": "signature",
          "type": "tuple"
        }
      ],
      "name": "isSigned",
      "outputs": [
        {
          "internalType": "bool",
          "name": "",
          "type": "bool"
        }
      ],
      "payable": false,
      "stateMutability": "pure",
      "type": "function"
    },
    {
      "constant": false,
      "inputs": [
        {
          "components": [
            {
              "components": [
                {
                  "internalType": "enum Adjudicator.StateType",
                  "name": "stateType",
                  "type": "uint8"
                },
                {
                  "components": [
                    {
                      "internalType": "address",
                      "name": "alice",
                      "type": "address"
                    },
                    {
                      "internalType": "address",
                      "name": "bob",
                      "type": "address"
                    },
                    {
                      "internalType": "uint256",
                      "name": "channelNonce",
                      "type": "uint256"
                    }
                  ],
                  "internalType": "struct Adjudicator.Channel",
                  "name": "channel",
                  "type": "tuple"
                },
                {
                  "internalType": "uint8",
                  "name": "turnNum",
                  "type": "uint8"
                },
                {
                  "components": [
                    {
                      "internalType": "uint256",
                      "name": "aliceAmount",
                      "type": "uint256"
                    },
                    {
                      "internalType": "uint256",
                      "name": "bobAmount",
                      "type": "uint256"
                    }
                  ],
                  "internalType": "struct Adjudicator.Resolution",
                  "name": "resolution",
                  "type": "tuple"
                },
                {
                  "internalType": "uint256",
                  "name": "timestamp",
                  "type": "uint256"
                },
                {
                  "internalType": "uint256",
                  "name": "opponent_timestamp",
                  "type": "uint256"
                },
                {
                  "internalType": "uint256",
                  "name": "stake",
                  "type": "uint256"
                },
                {
                  "components": [
                    {
                      "internalType": "uint256",
                      "name": "totalLetterCount",
                      "type": "uint256"
                    },
                    {
                      "internalType": "uint256",
                      "name": "opponentTotalLetterCount",
                      "type": "uint256"
                    },
                    {
                      "internalType": "uint256",
                      "name": "gameLetterCount",
                      "type": "uint256"
                    }
                  ],
                  "internalType": "struct Adjudicator.Play",
                  "name": "play",
                  "type": "tuple"
                }
              ],
              "internalType": "struct Adjudicator.State",
              "name": "state",
              "type": "tuple"
            },
            {
              "components": [
                {
                  "internalType": "address",
                  "name": "signer",
                  "type": "address"
                },
                {
                  "internalType": "bytes",
                  "name": "signature",
                  "type": "bytes"
                }
              ],
              "internalType": "struct Adjudicator.Signature",
              "name": "signature",
              "type": "tuple"
            }
          ],
          "internalType": "struct Adjudicator.Move",
          "name": "preFundSetup",
          "type": "tuple"
        },
        {
          "components": [
            {
              "components": [
                {
                  "internalType": "enum Adjudicator.StateType",
                  "name": "stateType",
                  "type": "uint8"
                },
                {
                  "components": [
                    {
                      "internalType": "address",
                      "name": "alice",
                      "type": "address"
                    },
                    {
                      "internalType": "address",
                      "name": "bob",
                      "type": "address"
                    },
                    {
                      "internalType": "uint256",
                      "name": "channelNonce",
                      "type": "uint256"
                    }
                  ],
                  "internalType": "struct Adjudicator.Channel",
                  "name": "channel",
                  "type": "tuple"
                },
                {
                  "internalType": "uint8",
                  "name": "turnNum",
                  "type": "uint8"
                },
                {
                  "components": [
                    {
                      "internalType": "uint256",
                      "name": "aliceAmount",
                      "type": "uint256"
                    },
                    {
                      "internalType": "uint256",
                      "name": "bobAmount",
                      "type": "uint256"
                    }
                  ],
                  "internalType": "struct Adjudicator.Resolution",
                  "name": "resolution",
                  "type": "tuple"
                },
                {
                  "internalType": "uint256",
                  "name": "timestamp",
                  "type": "uint256"
                },
                {
                  "internalType": "uint256",
                  "name": "opponent_timestamp",
                  "type": "uint256"
                },
                {
                  "internalType": "uint256",
                  "name": "stake",
                  "type": "uint256"
                },
                {
                  "components": [
                    {
                      "internalType": "uint256",
                      "name": "totalLetterCount",
                      "type": "uint256"
                    },
                    {
                      "internalType": "uint256",
                      "name": "opponentTotalLetterCount",
                      "type": "uint256"
                    },
                    {
                      "internalType": "uint256",
                      "name": "gameLetterCount",
                      "type": "uint256"
                    }
                  ],
                  "internalType": "struct Adjudicator.Play",
                  "name": "play",
                  "type": "tuple"
                }
              ],
              "internalType": "struct Adjudicator.State",
              "name": "state",
              "type": "tuple"
            },
            {
              "components": [
                {
                  "internalType": "address",
                  "name": "signer",
                  "type": "address"
                },
                {
                  "internalType": "bytes",
                  "name": "signature",
                  "type": "bytes"
                }
              ],
              "internalType": "struct Adjudicator.Signature",
              "name": "signature",
              "type": "tuple"
            }
          ],
          "internalType": "struct Adjudicator.Move",
          "name": "preFundSetupAck",
          "type": "tuple"
        }
      ],
      "name": "createChannel",
      "outputs": [],
      "payable": true,
      "stateMutability": "payable",
      "type": "function"
    },
    {
      "constant": true,
      "inputs": [
        {
          "components": [
            {
              "internalType": "enum Adjudicator.StateType",
              "name": "stateType",
              "type": "uint8"
            },
            {
              "components": [
                {
                  "internalType": "address",
                  "name": "alice",
                  "type": "address"
                },
                {
                  "internalType": "address",
                  "name": "bob",
                  "type": "address"
                },
                {
                  "internalType": "uint256",
                  "name": "channelNonce",
                  "type": "uint256"
                }
              ],
              "internalType": "struct Adjudicator.Channel",
              "name": "channel",
              "type": "tuple"
            },
            {
              "internalType": "uint8",
              "name": "turnNum",
              "type": "uint8"
            },
            {
              "components": [
                {
                  "internalType": "uint256",
                  "name": "aliceAmount",
                  "type": "uint256"
                },
                {
                  "internalType": "uint256",
                  "name": "bobAmount",
                  "type": "uint256"
                }
              ],
              "internalType": "struct Adjudicator.Resolution",
              "name": "resolution",
              "type": "tuple"
            },
            {
              "internalType": "uint256",
              "name": "timestamp",
              "type": "uint256"
            },
            {
              "internalType": "uint256",
              "name": "opponent_timestamp",
              "type": "uint256"
            },
            {
              "internalType": "uint256",
              "name": "stake",
              "type": "uint256"
            },
            {
              "components": [
                {
                  "internalType": "uint256",
                  "name": "totalLetterCount",
                  "type": "uint256"
                },
                {
                  "internalType": "uint256",
                  "name": "opponentTotalLetterCount",
                  "type": "uint256"
                },
                {
                  "internalType": "uint256",
                  "name": "gameLetterCount",
                  "type": "uint256"
                }
              ],
              "internalType": "struct Adjudicator.Play",
              "name": "play",
              "type": "tuple"
            }
          ],
          "internalType": "struct Adjudicator.State",
          "name": "fromState",
          "type": "tuple"
        },
        {
          "components": [
            {
              "internalType": "enum Adjudicator.StateType",
              "name": "stateType",
              "type": "uint8"
            },
            {
              "components": [
                {
                  "internalType": "address",
                  "name": "alice",
                  "type": "address"
                },
                {
                  "internalType": "address",
                  "name": "bob",
                  "type": "address"
                },
                {
                  "internalType": "uint256",
                  "name": "channelNonce",
                  "type": "uint256"
                }
              ],
              "internalType": "struct Adjudicator.Channel",
              "name": "channel",
              "type": "tuple"
            },
            {
              "internalType": "uint8",
              "name": "turnNum",
              "type": "uint8"
            },
            {
              "components": [
                {
                  "internalType": "uint256",
                  "name": "aliceAmount",
                  "type": "uint256"
                },
                {
                  "internalType": "uint256",
                  "name": "bobAmount",
                  "type": "uint256"
                }
              ],
              "internalType": "struct Adjudicator.Resolution",
              "name": "resolution",
              "type": "tuple"
            },
            {
              "internalType": "uint256",
              "name": "timestamp",
              "type": "uint256"
            },
            {
              "internalType": "uint256",
              "name": "opponent_timestamp",
              "type": "uint256"
            },
            {
              "internalType": "uint256",
              "name": "stake",
              "type": "uint256"
            },
            {
              "components": [
                {
                  "internalType": "uint256",
                  "name": "totalLetterCount",
                  "type": "uint256"
                },
                {
                  "internalType": "uint256",
                  "name": "opponentTotalLetterCount",
                  "type": "uint256"
                },
                {
                  "internalType": "uint256",
                  "name": "gameLetterCount",
                  "type": "uint256"
                }
              ],
              "internalType": "struct Adjudicator.Play",
              "name": "play",
              "type": "tuple"
            }
          ],
          "internalType": "struct Adjudicator.State",
          "name": "toState",
          "type": "tuple"
        },
        {
          "internalType": "bool",
          "name": "isAlice",
          "type": "bool"
        }
      ],
      "name": "validTransition",
      "outputs": [
        {
          "internalType": "bool",
          "name": "",
          "type": "bool"
        }
      ],
      "payable": false,
      "stateMutability": "view",
      "type": "function"
    },
    {
      "constant": true,
      "inputs": [
        {
          "components": [
            {
              "components": [
                {
                  "internalType": "enum Adjudicator.StateType",
                  "name": "stateType",
                  "type": "uint8"
                },
                {
                  "components": [
                    {
                      "internalType": "address",
                      "name": "alice",
                      "type": "address"
                    },
                    {
                      "internalType": "address",
                      "name": "bob",
                      "type": "address"
                    },
                    {
                      "internalType": "uint256",
                      "name": "channelNonce",
                      "type": "uint256"
                    }
                  ],
                  "internalType": "struct Adjudicator.Channel",
                  "name": "channel",
                  "type": "tuple"
                },
                {
                  "internalType": "uint8",
                  "name": "turnNum",
                  "type": "uint8"
                },
                {
                  "components": [
                    {
                      "internalType": "uint256",
                      "name": "aliceAmount",
                      "type": "uint256"
                    },
                    {
                      "internalType": "uint256",
                      "name": "bobAmount",
                      "type": "uint256"
                    }
                  ],
                  "internalType": "struct Adjudicator.Resolution",
                  "name": "resolution",
                  "type": "tuple"
                },
                {
                  "internalType": "uint256",
                  "name": "timestamp",
                  "type": "uint256"
                },
                {
                  "internalType": "uint256",
                  "name": "opponent_timestamp",
                  "type": "uint256"
                },
                {
                  "internalType": "uint256",
                  "name": "stake",
                  "type": "uint256"
                },
                {
                  "components": [
                    {
                      "internalType": "uint256",
                      "name": "totalLetterCount",
                      "type": "uint256"
                    },
                    {
                      "internalType": "uint256",
                      "name": "opponentTotalLetterCount",
                      "type": "uint256"
                    },
                    {
                      "internalType": "uint256",
                      "name": "gameLetterCount",
                      "type": "uint256"
                    }
                  ],
                  "internalType": "struct Adjudicator.Play",
                  "name": "play",
                  "type": "tuple"
                }
              ],
              "internalType": "struct Adjudicator.State",
              "name": "state",
              "type": "tuple"
            },
            {
              "components": [
                {
                  "internalType": "address",
                  "name": "signer",
                  "type": "address"
                },
                {
                  "internalType": "bytes",
                  "name": "signature",
                  "type": "bytes"
                }
              ],
              "internalType": "struct Adjudicator.Signature",
              "name": "signature",
              "type": "tuple"
            }
          ],
          "internalType": "struct Adjudicator.Move",
          "name": "opponentMove",
          "type": "tuple"
        },
        {
          "components": [
            {
              "components": [
                {
                  "internalType": "enum Adjudicator.StateType",
                  "name": "stateType",
                  "type": "uint8"
                },
                {
                  "components": [
                    {
                      "internalType": "address",
                      "name": "alice",
                      "type": "address"
                    },
                    {
                      "internalType": "address",
                      "name": "bob",
                      "type": "address"
                    },
                    {
                      "internalType": "uint256",
                      "name": "channelNonce",
                      "type": "uint256"
                    }
                  ],
                  "internalType": "struct Adjudicator.Channel",
                  "name": "channel",
                  "type": "tuple"
                },
                {
                  "internalType": "uint8",
                  "name": "turnNum",
                  "type": "uint8"
                },
                {
                  "components": [
                    {
                      "internalType": "uint256",
                      "name": "aliceAmount",
                      "type": "uint256"
                    },
                    {
                      "internalType": "uint256",
                      "name": "bobAmount",
                      "type": "uint256"
                    }
                  ],
                  "internalType": "struct Adjudicator.Resolution",
                  "name": "resolution",
                  "type": "tuple"
                },
                {
                  "internalType": "uint256",
                  "name": "timestamp",
                  "type": "uint256"
                },
                {
                  "internalType": "uint256",
                  "name": "opponent_timestamp",
                  "type": "uint256"
                },
                {
                  "internalType": "uint256",
                  "name": "stake",
                  "type": "uint256"
                },
                {
                  "components": [
                    {
                      "internalType": "uint256",
                      "name": "totalLetterCount",
                      "type": "uint256"
                    },
                    {
                      "internalType": "uint256",
                      "name": "opponentTotalLetterCount",
                      "type": "uint256"
                    },
                    {
                      "internalType": "uint256",
                      "name": "gameLetterCount",
                      "type": "uint256"
                    }
                  ],
                  "internalType": "struct Adjudicator.Play",
                  "name": "play",
                  "type": "tuple"
                }
              ],
              "internalType": "struct Adjudicator.State",
              "name": "state",
              "type": "tuple"
            },
            {
              "components": [
                {
                  "internalType": "address",
                  "name": "signer",
                  "type": "address"
                },
                {
                  "internalType": "bytes",
                  "name": "signature",
                  "type": "bytes"
                }
              ],
              "internalType": "struct Adjudicator.Signature",
              "name": "signature",
              "type": "tuple"
            }
          ],
          "internalType": "struct Adjudicator.Move",
          "name": "selfMove",
          "type": "tuple"
        }
      ],
      "name": "validMove",
      "outputs": [
        {
          "internalType": "bool",
          "name": "",
          "type": "bool"
        }
      ],
      "payable": false,
      "stateMutability": "view",
      "type": "function"
    },
    {
      "constant": false,
      "inputs": [
        {
          "components": [
            {
              "components": [
                {
                  "internalType": "enum Adjudicator.StateType",
                  "name": "stateType",
                  "type": "uint8"
                },
                {
                  "components": [
                    {
                      "internalType": "address",
                      "name": "alice",
                      "type": "address"
                    },
                    {
                      "internalType": "address",
                      "name": "bob",
                      "type": "address"
                    },
                    {
                      "internalType": "uint256",
                      "name": "channelNonce",
                      "type": "uint256"
                    }
                  ],
                  "internalType": "struct Adjudicator.Channel",
                  "name": "channel",
                  "type": "tuple"
                },
                {
                  "internalType": "uint8",
                  "name": "turnNum",
                  "type": "uint8"
                },
                {
                  "components": [
                    {
                      "internalType": "uint256",
                      "name": "aliceAmount",
                      "type": "uint256"
                    },
                    {
                      "internalType": "uint256",
                      "name": "bobAmount",
                      "type": "uint256"
                    }
                  ],
                  "internalType": "struct Adjudicator.Resolution",
                  "name": "resolution",
                  "type": "tuple"
                },
                {
                  "internalType": "uint256",
                  "name": "timestamp",
                  "type": "uint256"
                },
                {
                  "internalType": "uint256",
                  "name": "opponent_timestamp",
                  "type": "uint256"
                },
                {
                  "internalType": "uint256",
                  "name": "stake",
                  "type": "uint256"
                },
                {
                  "components": [
                    {
                      "internalType": "uint256",
                      "name": "totalLetterCount",
                      "type": "uint256"
                    },
                    {
                      "internalType": "uint256",
                      "name": "opponentTotalLetterCount",
                      "type": "uint256"
                    },
                    {
                      "internalType": "uint256",
                      "name": "gameLetterCount",
                      "type": "uint256"
                    }
                  ],
                  "internalType": "struct Adjudicator.Play",
                  "name": "play",
                  "type": "tuple"
                }
              ],
              "internalType": "struct Adjudicator.State",
              "name": "state",
              "type": "tuple"
            },
            {
              "components": [
                {
                  "internalType": "address",
                  "name": "signer",
                  "type": "address"
                },
                {
                  "internalType": "bytes",
                  "name": "signature",
                  "type": "bytes"
                }
              ],
              "internalType": "struct Adjudicator.Signature",
              "name": "signature",
              "type": "tuple"
            }
          ],
          "internalType": "struct Adjudicator.Move",
          "name": "opponentMove",
          "type": "tuple"
        },
        {
          "components": [
            {
              "components": [
                {
                  "internalType": "enum Adjudicator.StateType",
                  "name": "stateType",
                  "type": "uint8"
                },
                {
                  "components": [
                    {
                      "internalType": "address",
                      "name": "alice",
                      "type": "address"
                    },
                    {
                      "internalType": "address",
                      "name": "bob",
                      "type": "address"
                    },
                    {
                      "internalType": "uint256",
                      "name": "channelNonce",
                      "type": "uint256"
                    }
                  ],
                  "internalType": "struct Adjudicator.Channel",
                  "name": "channel",
                  "type": "tuple"
                },
                {
                  "internalType": "uint8",
                  "name": "turnNum",
                  "type": "uint8"
                },
                {
                  "components": [
                    {
                      "internalType": "uint256",
                      "name": "aliceAmount",
                      "type": "uint256"
                    },
                    {
                      "internalType": "uint256",
                      "name": "bobAmount",
                      "type": "uint256"
                    }
                  ],
                  "internalType": "struct Adjudicator.Resolution",
                  "name": "resolution",
                  "type": "tuple"
                },
                {
                  "internalType": "uint256",
                  "name": "timestamp",
                  "type": "uint256"
                },
                {
                  "internalType": "uint256",
                  "name": "opponent_timestamp",
                  "type": "uint256"
                },
                {
                  "internalType": "uint256",
                  "name": "stake",
                  "type": "uint256"
                },
                {
                  "components": [
                    {
                      "internalType": "uint256",
                      "name": "totalLetterCount",
                      "type": "uint256"
                    },
                    {
                      "internalType": "uint256",
                      "name": "opponentTotalLetterCount",
                      "type": "uint256"
                    },
                    {
                      "internalType": "uint256",
                      "name": "gameLetterCount",
                      "type": "uint256"
                    }
                  ],
                  "internalType": "struct Adjudicator.Play",
                  "name": "play",
                  "type": "tuple"
                }
              ],
              "internalType": "struct Adjudicator.State",
              "name": "state",
              "type": "tuple"
            },
            {
              "components": [
                {
                  "internalType": "address",
                  "name": "signer",
                  "type": "address"
                },
                {
                  "internalType": "bytes",
                  "name": "signature",
                  "type": "bytes"
                }
              ],
              "internalType": "struct Adjudicator.Signature",
              "name": "signature",
              "type": "tuple"
            }
          ],
          "internalType": "struct Adjudicator.Move",
          "name": "selfMove",
          "type": "tuple"
        }
      ],
      "name": "forceMove",
      "outputs": [],
      "payable": false,
      "stateMutability": "nonpayable",
      "type": "function"
    },
    {
      "constant": false,
      "inputs": [
        {
          "internalType": "bytes32",
          "name": "channelHash",
          "type": "bytes32"
        },
        {
          "components": [
            {
              "components": [
                {
                  "internalType": "enum Adjudicator.StateType",
                  "name": "stateType",
                  "type": "uint8"
                },
                {
                  "components": [
                    {
                      "internalType": "address",
                      "name": "alice",
                      "type": "address"
                    },
                    {
                      "internalType": "address",
                      "name": "bob",
                      "type": "address"
                    },
                    {
                      "internalType": "uint256",
                      "name": "channelNonce",
                      "type": "uint256"
                    }
                  ],
                  "internalType": "struct Adjudicator.Channel",
                  "name": "channel",
                  "type": "tuple"
                },
                {
                  "internalType": "uint8",
                  "name": "turnNum",
                  "type": "uint8"
                },
                {
                  "components": [
                    {
                      "internalType": "uint256",
                      "name": "aliceAmount",
                      "type": "uint256"
                    },
                    {
                      "internalType": "uint256",
                      "name": "bobAmount",
                      "type": "uint256"
                    }
                  ],
                  "internalType": "struct Adjudicator.Resolution",
                  "name": "resolution",
                  "type": "tuple"
                },
                {
                  "internalType": "uint256",
                  "name": "timestamp",
                  "type": "uint256"
                },
                {
                  "internalType": "uint256",
                  "name": "opponent_timestamp",
                  "type": "uint256"
                },
                {
                  "internalType": "uint256",
                  "name": "stake",
                  "type": "uint256"
                },
                {
                  "components": [
                    {
                      "internalType": "uint256",
                      "name": "totalLetterCount",
                      "type": "uint256"
                    },
                    {
                      "internalType": "uint256",
                      "name": "opponentTotalLetterCount",
                      "type": "uint256"
                    },
                    {
                      "internalType": "uint256",
                      "name": "gameLetterCount",
                      "type": "uint256"
                    }
                  ],
                  "internalType": "struct Adjudicator.Play",
                  "name": "play",
                  "type": "tuple"
                }
              ],
              "internalType": "struct Adjudicator.State",
              "name": "state",
              "type": "tuple"
            },
            {
              "components": [
                {
                  "internalType": "address",
                  "name": "signer",
                  "type": "address"
                },
                {
                  "internalType": "bytes",
                  "name": "signature",
                  "type": "bytes"
                }
              ],
              "internalType": "struct Adjudicator.Signature",
              "name": "signature",
              "type": "tuple"
            }
          ],
          "internalType": "struct Adjudicator.Move",
          "name": "respondMove",
          "type": "tuple"
        }
      ],
      "name": "respondWithMove",
      "outputs": [],
      "payable": false,
      "stateMutability": "nonpayable",
      "type": "function"
    },
    {
      "constant": false,
      "inputs": [
        {
          "internalType": "bytes32",
          "name": "channelHash",
          "type": "bytes32"
        }
      ],
      "name": "redeemResolution",
      "outputs": [],
      "payable": false,
      "stateMutability": "nonpayable",
      "type": "function"
    },
    {
      "constant": false,
      "inputs": [
        {
          "components": [
            {
              "components": [
                {
                  "internalType": "enum Adjudicator.StateType",
                  "name": "stateType",
                  "type": "uint8"
                },
                {
                  "components": [
                    {
                      "internalType": "address",
                      "name": "alice",
                      "type": "address"
                    },
                    {
                      "internalType": "address",
                      "name": "bob",
                      "type": "address"
                    },
                    {
                      "internalType": "uint256",
                      "name": "channelNonce",
                      "type": "uint256"
                    }
                  ],
                  "internalType": "struct Adjudicator.Channel",
                  "name": "channel",
                  "type": "tuple"
                },
                {
                  "internalType": "uint8",
                  "name": "turnNum",
                  "type": "uint8"
                },
                {
                  "components": [
                    {
                      "internalType": "uint256",
                      "name": "aliceAmount",
                      "type": "uint256"
                    },
                    {
                      "internalType": "uint256",
                      "name": "bobAmount",
                      "type": "uint256"
                    }
                  ],
                  "internalType": "struct Adjudicator.Resolution",
                  "name": "resolution",
                  "type": "tuple"
                },
                {
                  "internalType": "uint256",
                  "name": "timestamp",
                  "type": "uint256"
                },
                {
                  "internalType": "uint256",
                  "name": "opponent_timestamp",
                  "type": "uint256"
                },
                {
                  "internalType": "uint256",
                  "name": "stake",
                  "type": "uint256"
                },
                {
                  "components": [
                    {
                      "internalType": "uint256",
                      "name": "totalLetterCount",
                      "type": "uint256"
                    },
                    {
                      "internalType": "uint256",
                      "name": "opponentTotalLetterCount",
                      "type": "uint256"
                    },
                    {
                      "internalType": "uint256",
                      "name": "gameLetterCount",
                      "type": "uint256"
                    }
                  ],
                  "internalType": "struct Adjudicator.Play",
                  "name": "play",
                  "type": "tuple"
                }
              ],
              "internalType": "struct Adjudicator.State",
              "name": "state",
              "type": "tuple"
            },
            {
              "components": [
                {
                  "internalType": "address",
                  "name": "signer",
                  "type": "address"
                },
                {
                  "internalType": "bytes",
                  "name": "signature",
                  "type": "bytes"
                }
              ],
              "internalType": "struct Adjudicator.Signature",
              "name": "signature",
              "type": "tuple"
            }
          ],
          "internalType": "struct Adjudicator.Move",
          "name": "concludeAlice",
          "type": "tuple"
        },
        {
          "components": [
            {
              "components": [
                {
                  "internalType": "enum Adjudicator.StateType",
                  "name": "stateType",
                  "type": "uint8"
                },
                {
                  "components": [
                    {
                      "internalType": "address",
                      "name": "alice",
                      "type": "address"
                    },
                    {
                      "internalType": "address",
                      "name": "bob",
                      "type": "address"
                    },
                    {
                      "internalType": "uint256",
                      "name": "channelNonce",
                      "type": "uint256"
                    }
                  ],
                  "internalType": "struct Adjudicator.Channel",
                  "name": "channel",
                  "type": "tuple"
                },
                {
                  "internalType": "uint8",
                  "name": "turnNum",
                  "type": "uint8"
                },
                {
                  "components": [
                    {
                      "internalType": "uint256",
                      "name": "aliceAmount",
                      "type": "uint256"
                    },
                    {
                      "internalType": "uint256",
                      "name": "bobAmount",
                      "type": "uint256"
                    }
                  ],
                  "internalType": "struct Adjudicator.Resolution",
                  "name": "resolution",
                  "type": "tuple"
                },
                {
                  "internalType": "uint256",
                  "name": "timestamp",
                  "type": "uint256"
                },
                {
                  "internalType": "uint256",
                  "name": "opponent_timestamp",
                  "type": "uint256"
                },
                {
                  "internalType": "uint256",
                  "name": "stake",
                  "type": "uint256"
                },
                {
                  "components": [
                    {
                      "internalType": "uint256",
                      "name": "totalLetterCount",
                      "type": "uint256"
                    },
                    {
                      "internalType": "uint256",
                      "name": "opponentTotalLetterCount",
                      "type": "uint256"
                    },
                    {
                      "internalType": "uint256",
                      "name": "gameLetterCount",
                      "type": "uint256"
                    }
                  ],
                  "internalType": "struct Adjudicator.Play",
                  "name": "play",
                  "type": "tuple"
                }
              ],
              "internalType": "struct Adjudicator.State",
              "name": "state",
              "type": "tuple"
            },
            {
              "components": [
                {
                  "internalType": "address",
                  "name": "signer",
                  "type": "address"
                },
                {
                  "internalType": "bytes",
                  "name": "signature",
                  "type": "bytes"
                }
              ],
              "internalType": "struct Adjudicator.Signature",
              "name": "signature",
              "type": "tuple"
            }
          ],
          "internalType": "struct Adjudicator.Move",
          "name": "concludeBob",
          "type": "tuple"
        }
      ],
      "name": "withdrawFunds",
      "outputs": [],
      "payable": false,
      "stateMutability": "nonpayable",
      "type": "function"
    }
  ],
  "bytecode": "0x60806040526003805534801561001457600080fd5b506159e080620000256000396000f3fe6080604052600436106100e85760003560e01c80639afa67d51161008a578063cf93acb411610059578063cf93acb414610315578063d88b11b51461033e578063fabe47af1461037b578063ffbd9c84146103a6576100e8565b80639afa67d51461022b578063aede40b614610254578063c1e69b6614610296578063cda55a5e146102d8576100e8565b80638d731a21116100c65780638d731a211461016f5780638da5cb5b146101ac5780638f4d041c146101d7578063990c8f7914610200576100e8565b80630befb248146100ed5780633c3e2cfe146101165780637c9890b714610132575b600080fd5b3480156100f957600080fd5b50610114600480360361010f91908101906150b4565b6103e3565b005b610130600480360361012b91908101906150b4565b611363565b005b34801561013e57600080fd5b5061015960048036036101549190810190615120565b6117af565b6040516101669190615669565b60405180910390f35b34801561017b57600080fd5b506101966004803603610191919081019061508b565b6117df565b6040516101a39190615669565b60405180910390f35b3480156101b857600080fd5b506101c161180f565b6040516101ce91906155d2565b60405180910390f35b3480156101e357600080fd5b506101fe60048036036101f991908101906150b4565b611834565b005b34801561020c57600080fd5b50610215611a17565b60405161022291906156c9565b60405180910390f35b34801561023757600080fd5b50610252600480360361024d9190810190614fba565b611a20565b005b34801561026057600080fd5b5061027b60048036036102769190810190614fba565b6124fe565b60405161028d96959493929190615608565b60405180910390f35b3480156102a257600080fd5b506102bd60048036036102b89190810190614fba565b612599565b6040516102cf969594939291906156ff565b60405180910390f35b3480156102e457600080fd5b506102ff60048036036102fa9190810190615037565b612e14565b60405161030c91906155ed565b60405180910390f35b34801561032157600080fd5b5061033c60048036036103379190810190614fe3565b612e6f565b005b34801561034a57600080fd5b50610365600480360361036091908101906150b4565b613a06565b60405161037291906155ed565b60405180910390f35b34801561038757600080fd5b50610390613bdc565b60405161039d9190615791565b60405180910390f35b3480156103b257600080fd5b506103cd60048036036103c8919081019061514a565b613be2565b6040516103da91906155ed565b60405180910390f35b3373ffffffffffffffffffffffffffffffffffffffff1681602001516000015173ffffffffffffffffffffffffffffffffffffffff161461042357600080fd5b61042d8282613a06565b61043657600080fd5b60048081111561044257fe5b826000015160000151600481111561045657fe5b141561046157600080fd5b60006104748360000151602001516117df565b905061047e614821565b600260008381526020019081526020016000206040518060c00160405290816000820160405180604001604052908160008201604051806101000160405290816000820160009054906101000a900460ff1660048111156104db57fe5b60048111156104e657fe5b8152602001600182016040518060600160405290816000820160009054906101000a900473ffffffffffffffffffffffffffffffffffffffff1673ffffffffffffffffffffffffffffffffffffffff1673ffffffffffffffffffffffffffffffffffffffff1681526020016001820160009054906101000a900473ffffffffffffffffffffffffffffffffffffffff1673ffffffffffffffffffffffffffffffffffffffff1673ffffffffffffffffffffffffffffffffffffffff16815260200160028201548152505081526020016004820160009054906101000a900460ff1660ff1660ff16815260200160058201604051806040016040529081600082015481526020016001820154815250508152602001600782015481526020016008820154815260200160098201548152602001600a82016040518060600160405290816000820154815260200160018201548152602001600282015481525050815250508152602001600d82016040518060400160405290816000820160009054906101000a900473ffffffffffffffffffffffffffffffffffffffff1673ffffffffffffffffffffffffffffffffffffffff1673ffffffffffffffffffffffffffffffffffffffff168152602001600182018054600181600116156101000203166002900480601f01602080910402602001604051908101604052809291908181526020018280546001816001161561010002031660029004801561074c5780601f106107215761010080835404028352916020019161074c565b820191906000526020600020905b81548152906001019060200180831161072f57829003601f168201915b505050505081525050815250508152602001600f820160405180604001604052908160008201604051806101000160405290816000820160009054906101000a900460ff16600481111561079c57fe5b60048111156107a757fe5b8152602001600182016040518060600160405290816000820160009054906101000a900473ffffffffffffffffffffffffffffffffffffffff1673ffffffffffffffffffffffffffffffffffffffff1673ffffffffffffffffffffffffffffffffffffffff1681526020016001820160009054906101000a900473ffffffffffffffffffffffffffffffffffffffff1673ffffffffffffffffffffffffffffffffffffffff1673ffffffffffffffffffffffffffffffffffffffff16815260200160028201548152505081526020016004820160009054906101000a900460ff1660ff1660ff16815260200160058201604051806040016040529081600082015481526020016001820154815250508152602001600782015481526020016008820154815260200160098201548152602001600a82016040518060600160405290816000820154815260200160018201548152602001600282015481525050815250508152602001600d82016040518060400160405290816000820160009054906101000a900473ffffffffffffffffffffffffffffffffffffffff1673ffffffffffffffffffffffffffffffffffffffff1673ffffffffffffffffffffffffffffffffffffffff168152602001600182018054600181600116156101000203166002900480601f016020809104026020016040519081016040528092919081815260200182805460018160011615610100020316600290048015610a0d5780601f106109e257610100808354040283529160200191610a0d565b820191906000526020600020905b8154815290600101906020018083116109f057829003601f168201915b505050505081525050815250508152602001601e820160405180604001604052908160008201604051806101000160405290816000820160009054906101000a900460ff166004811115610a5d57fe5b6004811115610a6857fe5b8152602001600182016040518060600160405290816000820160009054906101000a900473ffffffffffffffffffffffffffffffffffffffff1673ffffffffffffffffffffffffffffffffffffffff1673ffffffffffffffffffffffffffffffffffffffff1681526020016001820160009054906101000a900473ffffffffffffffffffffffffffffffffffffffff1673ffffffffffffffffffffffffffffffffffffffff1673ffffffffffffffffffffffffffffffffffffffff16815260200160028201548152505081526020016004820160009054906101000a900460ff1660ff1660ff16815260200160058201604051806040016040529081600082015481526020016001820154815250508152602001600782015481526020016008820154815260200160098201548152602001600a82016040518060600160405290816000820154815260200160018201548152602001600282015481525050815250508152602001600d82016040518060400160405290816000820160009054906101000a900473ffffffffffffffffffffffffffffffffffffffff1673ffffffffffffffffffffffffffffffffffffffff1673ffffffffffffffffffffffffffffffffffffffff168152602001600182018054600181600116156101000203166002900480601f016020809104026020016040519081016040528092919081815260200182805460018160011615610100020316600290048015610cce5780601f10610ca357610100808354040283529160200191610cce565b820191906000526020600020905b815481529060010190602001808311610cb157829003601f168201915b505050505081525050815250508152602001602d8201548152602001602e820160009054906101000a900460ff16151515158152602001602e820160019054906101000a900460ff1615151515815250509050600015158160a00151151514610d3657600080fd5b82816000018190525083816020018190525042816060018181525050600081608001901515908115158152505060018160a0019015159081151581525050806002600084815260200190815260200160002060008201518160000160008201518160000160008201518160000160006101000a81548160ff02191690836004811115610dbe57fe5b021790555060208201518160010160008201518160000160006101000a81548173ffffffffffffffffffffffffffffffffffffffff021916908373ffffffffffffffffffffffffffffffffffffffff16021790555060208201518160010160006101000a81548173ffffffffffffffffffffffffffffffffffffffff021916908373ffffffffffffffffffffffffffffffffffffffff16021790555060408201518160020155505060408201518160040160006101000a81548160ff021916908360ff160217905550606082015181600501600082015181600001556020820151816001015550506080820151816007015560a0820151816008015560c0820151816009015560e082015181600a0160008201518160000155602082015181600101556040820151816002015550505050602082015181600d0160008201518160000160006101000a81548173ffffffffffffffffffffffffffffffffffffffff021916908373ffffffffffffffffffffffffffffffffffffffff1602179055506020820151816001019080519060200190610f5b92919061486d565b5050505050602082015181600f0160008201518160000160008201518160000160006101000a81548160ff02191690836004811115610f9657fe5b021790555060208201518160010160008201518160000160006101000a81548173ffffffffffffffffffffffffffffffffffffffff021916908373ffffffffffffffffffffffffffffffffffffffff16021790555060208201518160010160006101000a81548173ffffffffffffffffffffffffffffffffffffffff021916908373ffffffffffffffffffffffffffffffffffffffff16021790555060408201518160020155505060408201518160040160006101000a81548160ff021916908360ff160217905550606082015181600501600082015181600001556020820151816001015550506080820151816007015560a0820151816008015560c0820151816009015560e082015181600a0160008201518160000155602082015181600101556040820151816002015550505050602082015181600d0160008201518160000160006101000a81548173ffffffffffffffffffffffffffffffffffffffff021916908373ffffffffffffffffffffffffffffffffffffffff160217905550602082015181600101908051906020019061113392919061486d565b5050505050604082015181601e0160008201518160000160008201518160000160006101000a81548160ff0219169083600481111561116e57fe5b021790555060208201518160010160008201518160000160006101000a81548173ffffffffffffffffffffffffffffffffffffffff021916908373ffffffffffffffffffffffffffffffffffffffff16021790555060208201518160010160006101000a81548173ffffffffffffffffffffffffffffffffffffffff021916908373ffffffffffffffffffffffffffffffffffffffff16021790555060408201518160020155505060408201518160040160006101000a81548160ff021916908360ff160217905550606082015181600501600082015181600001556020820151816001015550506080820151816007015560a0820151816008015560c0820151816009015560e082015181600a0160008201518160000155602082015181600101556040820151816002015550505050602082015181600d0160008201518160000160006101000a81548173ffffffffffffffffffffffffffffffffffffffff021916908373ffffffffffffffffffffffffffffffffffffffff160217905550602082015181600101908051906020019061130b92919061486d565b5050505050606082015181602d0155608082015181602e0160006101000a81548160ff02191690831515021790555060a082015181602e0160016101000a81548160ff02191690831515021790555090505050505050565b61136d8282613a06565b61137657600080fd5b60008260000151602001516000015173ffffffffffffffffffffffffffffffffffffffff1683602001516000015173ffffffffffffffffffffffffffffffffffffffff1614801561140657508260000151602001516020015173ffffffffffffffffffffffffffffffffffffffff1682602001516000015173ffffffffffffffffffffffffffffffffffffffff16145b801561144557503373ffffffffffffffffffffffffffffffffffffffff1683602001516000015173ffffffffffffffffffffffffffffffffffffffff16145b905061144f6148ed565b83600001516020015190506000611465826117df565b9050821561148a5784600001516060015160000151341461148557600080fd5b6114a3565b8460000151606001516020015134146114a257600080fd5b5b6001600082815260200190815260200160002060030160009054906101000a900460ff161561163957821561158557600015156001600083815260200190815260200160002060000160009054906101000a900460ff1615151461150657600080fd5b600180600083815260200190815260200160002060000160006101000a81548160ff021916908315150217905550346001600083815260200190815260200160002060010160000181905550600180600083815260200190815260200160002060030160016101000a81548160ff021916908315150217905550611634565b600015156001600083815260200190815260200160002060000160019054906101000a900460ff161515146115b957600080fd5b600180600083815260200190815260200160002060000160016101000a81548160ff021916908315150217905550346001600083815260200190815260200160002060010160010181905550600180600083815260200190815260200160002060030160016101000a81548160ff0219169083151502179055505b6117a8565b600180600083815260200190815260200160002060030160006101000a81548160ff021916908315150217905550821561170c57600180600083815260200190815260200160002060000160006101000a81548160ff02191690831515021790555060006001600083815260200190815260200160002060000160016101000a81548160ff021916908315150217905550346001600083815260200190815260200160002060010160000181905550600060016000838152602001908152602001600020600101600101819055506117a7565b60006001600083815260200190815260200160002060000160006101000a81548160ff021916908315150217905550600180600083815260200190815260200160002060000160016101000a81548160ff021916908315150217905550600060016000838152602001908152602001600020600101600001819055503460016000838152602001908152602001600020600101600101819055505b5b5050505050565b6000816040516020016117c29190615775565b604051602081830303815290604052805190602001209050919050565b6000816040516020016117f291906156e4565b604051602081830303815290604052805190602001209050919050565b6000809054906101000a900473ffffffffffffffffffffffffffffffffffffffff1681565b61183e8282613a06565b61184757600080fd5b61184f6148ed565b82600001516020015190506000611865826117df565b9050600115156001600083815260200190815260200160002060030160009054906101000a900460ff1615151461189b57600080fd5b600115156001600083815260200190815260200160002060030160019054906101000a900460ff161515146118cf57600080fd5b600180600083815260200190815260200160002060030160026101000a81548160ff02191690831515021790555060016000828152602001908152602001600020600101600101546001600083815260200190815260200160002060010160000154018460000151606001516020015185600001516060015160000151011461195757600080fd5b6000826000015190506000836020015190508173ffffffffffffffffffffffffffffffffffffffff166108fc876000015160600151600001519081150290604051600060405180830381858888f193505050501580156119bb573d6000803e3d6000fd5b508073ffffffffffffffffffffffffffffffffffffffff166108fc876000015160600151602001519081150290604051600060405180830381858888f19350505050158015611a0e573d6000803e3d6000fd5b50505050505050565b60006001905090565b611a28614821565b600260008381526020019081526020016000206040518060c00160405290816000820160405180604001604052908160008201604051806101000160405290816000820160009054906101000a900460ff166004811115611a8557fe5b6004811115611a9057fe5b8152602001600182016040518060600160405290816000820160009054906101000a900473ffffffffffffffffffffffffffffffffffffffff1673ffffffffffffffffffffffffffffffffffffffff1673ffffffffffffffffffffffffffffffffffffffff1681526020016001820160009054906101000a900473ffffffffffffffffffffffffffffffffffffffff1673ffffffffffffffffffffffffffffffffffffffff1673ffffffffffffffffffffffffffffffffffffffff16815260200160028201548152505081526020016004820160009054906101000a900460ff1660ff1660ff16815260200160058201604051806040016040529081600082015481526020016001820154815250508152602001600782015481526020016008820154815260200160098201548152602001600a82016040518060600160405290816000820154815260200160018201548152602001600282015481525050815250508152602001600d82016040518060400160405290816000820160009054906101000a900473ffffffffffffffffffffffffffffffffffffffff1673ffffffffffffffffffffffffffffffffffffffff1673ffffffffffffffffffffffffffffffffffffffff168152602001600182018054600181600116156101000203166002900480601f016020809104026020016040519081016040528092919081815260200182805460018160011615610100020316600290048015611cf65780601f10611ccb57610100808354040283529160200191611cf6565b820191906000526020600020905b815481529060010190602001808311611cd957829003601f168201915b505050505081525050815250508152602001600f820160405180604001604052908160008201604051806101000160405290816000820160009054906101000a900460ff166004811115611d4657fe5b6004811115611d5157fe5b8152602001600182016040518060600160405290816000820160009054906101000a900473ffffffffffffffffffffffffffffffffffffffff1673ffffffffffffffffffffffffffffffffffffffff1673ffffffffffffffffffffffffffffffffffffffff1681526020016001820160009054906101000a900473ffffffffffffffffffffffffffffffffffffffff1673ffffffffffffffffffffffffffffffffffffffff1673ffffffffffffffffffffffffffffffffffffffff16815260200160028201548152505081526020016004820160009054906101000a900460ff1660ff1660ff16815260200160058201604051806040016040529081600082015481526020016001820154815250508152602001600782015481526020016008820154815260200160098201548152602001600a82016040518060600160405290816000820154815260200160018201548152602001600282015481525050815250508152602001600d82016040518060400160405290816000820160009054906101000a900473ffffffffffffffffffffffffffffffffffffffff1673ffffffffffffffffffffffffffffffffffffffff1673ffffffffffffffffffffffffffffffffffffffff168152602001600182018054600181600116156101000203166002900480601f016020809104026020016040519081016040528092919081815260200182805460018160011615610100020316600290048015611fb75780601f10611f8c57610100808354040283529160200191611fb7565b820191906000526020600020905b815481529060010190602001808311611f9a57829003601f168201915b505050505081525050815250508152602001601e820160405180604001604052908160008201604051806101000160405290816000820160009054906101000a900460ff16600481111561200757fe5b600481111561201257fe5b8152602001600182016040518060600160405290816000820160009054906101000a900473ffffffffffffffffffffffffffffffffffffffff1673ffffffffffffffffffffffffffffffffffffffff1673ffffffffffffffffffffffffffffffffffffffff1681526020016001820160009054906101000a900473ffffffffffffffffffffffffffffffffffffffff1673ffffffffffffffffffffffffffffffffffffffff1673ffffffffffffffffffffffffffffffffffffffff16815260200160028201548152505081526020016004820160009054906101000a900460ff1660ff1660ff16815260200160058201604051806040016040529081600082015481526020016001820154815250508152602001600782015481526020016008820154815260200160098201548152602001600a82016040518060600160405290816000820154815260200160018201548152602001600282015481525050815250508152602001600d82016040518060400160405290816000820160009054906101000a900473ffffffffffffffffffffffffffffffffffffffff1673ffffffffffffffffffffffffffffffffffffffff1673ffffffffffffffffffffffffffffffffffffffff168152602001600182018054600181600116156101000203166002900480601f0160208091040260200160405190810160405280929190818152602001828054600181600116156101000203166002900480156122785780601f1061224d57610100808354040283529160200191612278565b820191906000526020600020905b81548152906001019060200180831161225b57829003601f168201915b505050505081525050815250508152602001602d8201548152602001602e820160009054906101000a900460ff16151515158152602001602e820160019054906101000a900460ff1615151515815250509050600115158160a001511515146122e057600080fd5b6003548160600151014210612330576001816080019015159081151581525050600160026000848152602001908152602001600020602e0160006101000a81548160ff0219169083151502179055505b60011515816080015115151461234557600080fd5b61234d61493a565b8160200151600001516060015190506000600481111561236957fe5b82602001516000015160000151600481111561238157fe5b14156123bf57600160008481526020019081526020016000206001016040518060400160405290816000820154815260200160018201548152505090505b600160008481526020019081526020016000206001016001015460016000858152602001908152602001600020600101600001540181602001518260000151011461240957600080fd5b6124116148ed565b8260200151600001516020015190506000816000015190506000826020015190508173ffffffffffffffffffffffffffffffffffffffff166108fc85600001519081150290604051600060405180830381858888f1935050505015801561247c573d6000803e3d6000fd5b508073ffffffffffffffffffffffffffffffffffffffff166108fc85602001519081150290604051600060405180830381858888f193505050501580156124c7573d6000803e3d6000fd5b50600180600088815260200190815260200160002060030160026101000a81548160ff021916908315150217905550505050505050565b60016020528060005260406000206000915090508060000160009054906101000a900460ff16908060000160019054906101000a900460ff16908060010160405180604001604052908160008201548152602001600182015481525050908060030160009054906101000a900460ff16908060030160019054906101000a900460ff16908060030160029054906101000a900460ff16905086565b60026020528060005260406000206000915090508060000160405180604001604052908160008201604051806101000160405290816000820160009054906101000a900460ff1660048111156125eb57fe5b60048111156125f657fe5b8152602001600182016040518060600160405290816000820160009054906101000a900473ffffffffffffffffffffffffffffffffffffffff1673ffffffffffffffffffffffffffffffffffffffff1673ffffffffffffffffffffffffffffffffffffffff1681526020016001820160009054906101000a900473ffffffffffffffffffffffffffffffffffffffff1673ffffffffffffffffffffffffffffffffffffffff1673ffffffffffffffffffffffffffffffffffffffff16815260200160028201548152505081526020016004820160009054906101000a900460ff1660ff1660ff16815260200160058201604051806040016040529081600082015481526020016001820154815250508152602001600782015481526020016008820154815260200160098201548152602001600a82016040518060600160405290816000820154815260200160018201548152602001600282015481525050815250508152602001600d82016040518060400160405290816000820160009054906101000a900473ffffffffffffffffffffffffffffffffffffffff1673ffffffffffffffffffffffffffffffffffffffff1673ffffffffffffffffffffffffffffffffffffffff168152602001600182018054600181600116156101000203166002900480601f01602080910402602001604051908101604052809291908181526020018280546001816001161561010002031660029004801561285c5780601f106128315761010080835404028352916020019161285c565b820191906000526020600020905b81548152906001019060200180831161283f57829003601f168201915b505050505081525050815250509080600f0160405180604001604052908160008201604051806101000160405290816000820160009054906101000a900460ff1660048111156128a857fe5b60048111156128b357fe5b8152602001600182016040518060600160405290816000820160009054906101000a900473ffffffffffffffffffffffffffffffffffffffff1673ffffffffffffffffffffffffffffffffffffffff1673ffffffffffffffffffffffffffffffffffffffff1681526020016001820160009054906101000a900473ffffffffffffffffffffffffffffffffffffffff1673ffffffffffffffffffffffffffffffffffffffff1673ffffffffffffffffffffffffffffffffffffffff16815260200160028201548152505081526020016004820160009054906101000a900460ff1660ff1660ff16815260200160058201604051806040016040529081600082015481526020016001820154815250508152602001600782015481526020016008820154815260200160098201548152602001600a82016040518060600160405290816000820154815260200160018201548152602001600282015481525050815250508152602001600d82016040518060400160405290816000820160009054906101000a900473ffffffffffffffffffffffffffffffffffffffff1673ffffffffffffffffffffffffffffffffffffffff1673ffffffffffffffffffffffffffffffffffffffff168152602001600182018054600181600116156101000203166002900480601f016020809104026020016040519081016040528092919081815260200182805460018160011615610100020316600290048015612b195780601f10612aee57610100808354040283529160200191612b19565b820191906000526020600020905b815481529060010190602001808311612afc57829003601f168201915b505050505081525050815250509080601e0160405180604001604052908160008201604051806101000160405290816000820160009054906101000a900460ff166004811115612b6557fe5b6004811115612b7057fe5b8152602001600182016040518060600160405290816000820160009054906101000a900473ffffffffffffffffffffffffffffffffffffffff1673ffffffffffffffffffffffffffffffffffffffff1673ffffffffffffffffffffffffffffffffffffffff1681526020016001820160009054906101000a900473ffffffffffffffffffffffffffffffffffffffff1673ffffffffffffffffffffffffffffffffffffffff1673ffffffffffffffffffffffffffffffffffffffff16815260200160028201548152505081526020016004820160009054906101000a900460ff1660ff1660ff16815260200160058201604051806040016040529081600082015481526020016001820154815250508152602001600782015481526020016008820154815260200160098201548152602001600a82016040518060600160405290816000820154815260200160018201548152602001600282015481525050815250508152602001600d82016040518060400160405290816000820160009054906101000a900473ffffffffffffffffffffffffffffffffffffffff1673ffffffffffffffffffffffffffffffffffffffff1673ffffffffffffffffffffffffffffffffffffffff168152602001600182018054600181600116156101000203166002900480601f016020809104026020016040519081016040528092919081815260200182805460018160011615610100020316600290048015612dd65780601f10612dab57610100808354040283529160200191612dd6565b820191906000526020600020905b815481529060010190602001808311612db957829003601f168201915b505050505081525050815250509080602d01549080602e0160009054906101000a900460ff169080602e0160019054906101000a900460ff16905086565b6000816000015173ffffffffffffffffffffffffffffffffffffffff16612e508360200151612e4286614727565b61475790919063ffffffff16565b73ffffffffffffffffffffffffffffffffffffffff1614905092915050565b3373ffffffffffffffffffffffffffffffffffffffff1681602001516000015173ffffffffffffffffffffffffffffffffffffffff1614612eaf57600080fd5b612eb7614821565b600260008481526020019081526020016000206040518060c00160405290816000820160405180604001604052908160008201604051806101000160405290816000820160009054906101000a900460ff166004811115612f1457fe5b6004811115612f1f57fe5b8152602001600182016040518060600160405290816000820160009054906101000a900473ffffffffffffffffffffffffffffffffffffffff1673ffffffffffffffffffffffffffffffffffffffff1673ffffffffffffffffffffffffffffffffffffffff1681526020016001820160009054906101000a900473ffffffffffffffffffffffffffffffffffffffff1673ffffffffffffffffffffffffffffffffffffffff1673ffffffffffffffffffffffffffffffffffffffff16815260200160028201548152505081526020016004820160009054906101000a900460ff1660ff1660ff16815260200160058201604051806040016040529081600082015481526020016001820154815250508152602001600782015481526020016008820154815260200160098201548152602001600a82016040518060600160405290816000820154815260200160018201548152602001600282015481525050815250508152602001600d82016040518060400160405290816000820160009054906101000a900473ffffffffffffffffffffffffffffffffffffffff1673ffffffffffffffffffffffffffffffffffffffff1673ffffffffffffffffffffffffffffffffffffffff168152602001600182018054600181600116156101000203166002900480601f0160208091040260200160405190810160405280929190818152602001828054600181600116156101000203166002900480156131855780601f1061315a57610100808354040283529160200191613185565b820191906000526020600020905b81548152906001019060200180831161316857829003601f168201915b505050505081525050815250508152602001600f820160405180604001604052908160008201604051806101000160405290816000820160009054906101000a900460ff1660048111156131d557fe5b60048111156131e057fe5b8152602001600182016040518060600160405290816000820160009054906101000a900473ffffffffffffffffffffffffffffffffffffffff1673ffffffffffffffffffffffffffffffffffffffff1673ffffffffffffffffffffffffffffffffffffffff1681526020016001820160009054906101000a900473ffffffffffffffffffffffffffffffffffffffff1673ffffffffffffffffffffffffffffffffffffffff1673ffffffffffffffffffffffffffffffffffffffff16815260200160028201548152505081526020016004820160009054906101000a900460ff1660ff1660ff16815260200160058201604051806040016040529081600082015481526020016001820154815250508152602001600782015481526020016008820154815260200160098201548152602001600a82016040518060600160405290816000820154815260200160018201548152602001600282015481525050815250508152602001600d82016040518060400160405290816000820160009054906101000a900473ffffffffffffffffffffffffffffffffffffffff1673ffffffffffffffffffffffffffffffffffffffff1673ffffffffffffffffffffffffffffffffffffffff168152602001600182018054600181600116156101000203166002900480601f0160208091040260200160405190810160405280929190818152602001828054600181600116156101000203166002900480156134465780601f1061341b57610100808354040283529160200191613446565b820191906000526020600020905b81548152906001019060200180831161342957829003601f168201915b505050505081525050815250508152602001601e820160405180604001604052908160008201604051806101000160405290816000820160009054906101000a900460ff16600481111561349657fe5b60048111156134a157fe5b8152602001600182016040518060600160405290816000820160009054906101000a900473ffffffffffffffffffffffffffffffffffffffff1673ffffffffffffffffffffffffffffffffffffffff1673ffffffffffffffffffffffffffffffffffffffff1681526020016001820160009054906101000a900473ffffffffffffffffffffffffffffffffffffffff1673ffffffffffffffffffffffffffffffffffffffff1673ffffffffffffffffffffffffffffffffffffffff16815260200160028201548152505081526020016004820160009054906101000a900460ff1660ff1660ff16815260200160058201604051806040016040529081600082015481526020016001820154815250508152602001600782015481526020016008820154815260200160098201548152602001600a82016040518060600160405290816000820154815260200160018201548152602001600282015481525050815250508152602001600d82016040518060400160405290816000820160009054906101000a900473ffffffffffffffffffffffffffffffffffffffff1673ffffffffffffffffffffffffffffffffffffffff1673ffffffffffffffffffffffffffffffffffffffff168152602001600182018054600181600116156101000203166002900480601f0160208091040260200160405190810160405280929190818152602001828054600181600116156101000203166002900480156137075780601f106136dc57610100808354040283529160200191613707565b820191906000526020600020905b8154815290600101906020018083116136ea57829003601f168201915b505050505081525050815250508152602001602d8201548152602001602e820160009054906101000a900460ff16151515158152602001602e820160019054906101000a900460ff1615151515815250509050600115158160a0015115151461376f57600080fd5b60035481606001510142106137bf576001816080019015159081151581525050600160026000858152602001908152602001600020602e0160006101000a81548160ff0219169083151502179055505b6000151581608001511515146137d457600080fd5b6137e2816000015183613a06565b6137eb57600080fd5b8160026000858152602001908152602001600020601e0160008201518160000160008201518160000160006101000a81548160ff0219169083600481111561382f57fe5b021790555060208201518160010160008201518160000160006101000a81548173ffffffffffffffffffffffffffffffffffffffff021916908373ffffffffffffffffffffffffffffffffffffffff16021790555060208201518160010160006101000a81548173ffffffffffffffffffffffffffffffffffffffff021916908373ffffffffffffffffffffffffffffffffffffffff16021790555060408201518160020155505060408201518160040160006101000a81548160ff021916908360ff160217905550606082015181600501600082015181600001556020820151816001015550506080820151816007015560a0820151816008015560c0820151816009015560e082015181600a0160008201518160000155602082015181600101556040820151816002015550505050602082015181600d0160008201518160000160006101000a81548173ffffffffffffffffffffffffffffffffffffffff021916908373ffffffffffffffffffffffffffffffffffffffff16021790555060208201518160010190805190602001906139cc92919061486d565b505050905050600060026000858152602001908152602001600020602e0160016101000a81548160ff021916908315150217905550505050565b6000613a22613a1884600001516117af565b8460200151612e14565b8015613a445750613a43613a3983600001516117af565b8360200151612e14565b5b613a4d57600080fd5b8260000151602001516000015173ffffffffffffffffffffffffffffffffffffffff1683602001516000015173ffffffffffffffffffffffffffffffffffffffff16148015613adb57508160000151602001516020015173ffffffffffffffffffffffffffffffffffffffff1682602001516000015173ffffffffffffffffffffffffffffffffffffffff16145b80613b7057508260000151602001516020015173ffffffffffffffffffffffffffffffffffffffff1683602001516000015173ffffffffffffffffffffffffffffffffffffffff16148015613b6f57508160000151602001516000015173ffffffffffffffffffffffffffffffffffffffff1682602001516000015173ffffffffffffffffffffffffffffffffffffffff16145b5b613b7957600080fd5b60008260000151602001516000015173ffffffffffffffffffffffffffffffffffffffff1683602001516000015173ffffffffffffffffffffffffffffffffffffffff16149050613bd38460000151846000015183613be2565b91505092915050565b60035481565b6000613bf183602001516117df565b613bfe85602001516117df565b14613c0857600080fd5b6000600190506000613c1d86602001516117df565b905060006004811115613c2c57fe5b86600001516004811115613c3c57fe5b14613c6f57818015613c5657508560800151856080015110155b9150818015613c6c575085608001518560a00151145b91505b818015613c835750603c4203856080015110155b9150818015613c995750603c4201856080015111155b9150818015613cb757508560e00151604001518560e0015160400151145b9150818015613cd557508560e00151600001518560e0015160200151145b9150818015613cec57508560800151856080015110155b915060006004811115613cfb57fe5b86600001516004811115613d0b57fe5b1415613f115760006004811115613d1e57fe5b85600001516004811115613d2e57fe5b1415613d9e57818015613d4e5750846040015160ff16866040015160ff16145b9150818015613d6c5750846060015160000151866060015160000151145b9150818015613d8a5750846060015160200151866060015160200151145b9150818015613d97575083155b9150613f0c565b60016004811115613dab57fe5b85600001516004811115613dbb57fe5b1415613e9657818015613df55750600115156001600083815260200190815260200160002060030160009054906101000a900460ff161515145b9150818015613e2b5750600115156001600083815260200190815260200160002060030160019054906101000a900460ff161515145b9150818015613e475750846040015160ff16866040015160ff16145b9150818015613e655750846060015160000151866060015160000151145b9150818015613e835750846060015160200151866060015160200151145b9150818015613e8f5750835b9150613f0b565b600480811115613ea257fe5b85600001516004811115613eb257fe5b1415613f0557818015613ed45750846060015160000151866060015160000151145b9150818015613ef25750846060015160200151866060015160200151145b9150818015613efe5750835b9150613f0a565b600091505b5b5b61471b565b60016004811115613f1e57fe5b86600001516004811115613f2e57fe5b14156142225760016004811115613f4157fe5b85600001516004811115613f5157fe5b141561402d57818015613f8b5750600115156001600083815260200190815260200160002060030160009054906101000a900460ff161515145b9150818015613fc15750600115156001600083815260200190815260200160002060030160019054906101000a900460ff161515145b9150818015613fdd5750846040015160ff16866040015160ff16145b9150818015613ffb5750846060015160000151866060015160000151145b91508180156140195750846060015160200151866060015160200151145b9150818015614026575083155b915061421d565b6002600481111561403a57fe5b8560000151600481111561404a57fe5b141561418b5781801561406a5750846040015160ff16866040015160ff16105b91508180156140885750846060015160000151866060015160000151145b91508180156140a65750846060015160200151866060015160200151145b91508180156140b9575060008560c00151115b91508180156140d457508460600151600001518560c0015111155b91508180156140ef57508460600151602001518560c0015111155b9150818015614106575060008560e0015160000151115b915081801561412457508560e00151604001518560e0015160000151105b915081801561414257508560e00151604001518660e0015160000151105b915081801561415d57508460600151602001518560c0015111155b915081801561417857508460600151602001518560c0015111155b91508180156141845750835b915061421c565b60048081111561419757fe5b856000015160048111156141a757fe5b1415614216578180156141c75750846040015160ff16866040015160ff16105b91508180156141e55750846060015160000151866060015160000151145b91508180156142035750846060015160200151866060015160200151145b915081801561420f5750835b915061421b565b600091505b5b5b61471a565b6002600481111561422f57fe5b8660000151600481111561423f57fe5b1415614414576003600481111561425257fe5b8560000151600481111561426257fe5b141561440a578180156142825750846040015160ff16866040015160ff16145b915081801561429857508460c001518660c00151145b91508180156142ae575084608001518660800151145b91508180156142c5575060008560e0015160000151115b91506000808660e00151600001518860e0015160000151111561433e57600015158615151415614316578760c001518860600151600001510191508760c00151886060015160200151039050614339565b8760c001518860600151600001510391508760c001518860600151602001510190505b6143ca565b8660e00151600001518860e001516000015110156143b25760001515861515141561438a578760c001518860600151600001510391508760c001518860600151602001510190506143ad565b8760c001518860600151600001510191508760c001518860600151602001510390505b6143c9565b876060015160000151915087606001516020015190505b5b8380156143de575081876060015160000151145b93508380156143f4575080876060015160200151145b9350838015614401575085155b9350505061440f565b600091505b614719565b6003600481111561442157fe5b8660000151600481111561443157fe5b1415614611578180156144515750846040015160ff16866040015160ff16105b915081801561446f5750846060015160000151866060015160000151145b915081801561448d5750846060015160200151866060015160200151145b91508180156144a4575060008560e0015160000151115b9150600260048111156144b357fe5b856000015160048111156144c357fe5b141561455f578180156144da575060008560c00151115b91508180156144f557508460600151600001518560c0015111155b915081801561451057508460600151602001518560c0015111155b915081801561452e57508460e00151604001518560e0015160000151105b915081801561454c57508460e00151604001518560e0015160200151105b91508180156145585750835b915061460c565b60048081111561456b57fe5b8560000151600481111561457b57fe5b1415614606578180156145b757508460e00151604001518560e001516000015114806145b657508460e00151604001518560e0015160200151145b5b91508180156145d557508460e00151600001518660e0015160200151145b91508180156145f357508460e00151602001518660e0015160000151145b91508180156145ff5750835b915061460b565b600091505b5b614718565b60048081111561461d57fe5b8660000151600481111561462d57fe5b14156147125781801561464d5750846040015160ff16866040015160ff16145b915081801561466b5750846060015160000151866060015160000151145b91508180156146895750846060015160200151866060015160200151145b91508180156146a757508460e00151600001518660e0015160200151145b91508180156146c557508460e00151602001518660e0015160000151145b91508180156146d8575060008560c00151145b91508180156146e5575083155b91506004808111156146f357fe5b8560000151600481111561470357fe5b1461470d57600091505b614717565b600091505b5b5b5b5b81925050509392505050565b60008160405160200161473a91906155ac565b604051602081830303815290604052805190602001209050919050565b6000806000806041855114614772576000935050505061481b565b6020850151925060408501519150606085015160001a9050601b8160ff16101561479d57601b810190505b601b8160ff16141580156147b55750601c8160ff1614155b156147c6576000935050505061481b565b600186828585604051600081526020016040526040516147e99493929190615684565b6020604051602081039080840390855afa15801561480b573d6000803e3d6000fd5b5050506020604051035193505050505b92915050565b6040518060c00160405280614834614954565b8152602001614841614954565b815260200161484e614954565b8152602001600081526020016000151581526020016000151581525090565b828054600181600116156101000203166002900490600052602060002090601f016020900481019282601f106148ae57805160ff19168380011785556148dc565b828001600101855582156148dc579182015b828111156148db5782518255916020019190600101906148c0565b5b5090506148e9919061497a565b5090565b6040518060600160405280600073ffffffffffffffffffffffffffffffffffffffff168152602001600073ffffffffffffffffffffffffffffffffffffffff168152602001600081525090565b604051806040016040528060008152602001600081525090565b604051806040016040528061496761499f565b8152602001614974614a04565b81525090565b61499c91905b80821115614998576000816000905550600101614980565b5090565b90565b604051806101000160405280600060048111156149b857fe5b81526020016149c5614a34565b8152602001600060ff1681526020016149dc614a81565b81526020016000815260200160008152602001600081526020016149fe614a9b565b81525090565b6040518060400160405280600073ffffffffffffffffffffffffffffffffffffffff168152602001606081525090565b6040518060600160405280600073ffffffffffffffffffffffffffffffffffffffff168152602001600073ffffffffffffffffffffffffffffffffffffffff168152602001600081525090565b604051806040016040528060008152602001600081525090565b60405180606001604052806000815260200160008152602001600081525090565b600081359050614acb8161591a565b92915050565b600081359050614ae081615931565b92915050565b600081359050614af581615948565b92915050565b600082601f830112614b0c57600080fd5b8135614b1f614b1a826157d9565b6157ac565b91508082526020830160208301858383011115614b3b57600080fd5b614b468382846158b0565b50505092915050565b600081359050614b5e8161595f565b92915050565b600060608284031215614b7657600080fd5b614b8060606157ac565b90506000614b9084828501614abc565b6000830152506020614ba484828501614abc565b6020830152506040614bb884828501614f90565b60408301525092915050565b600060608284031215614bd657600080fd5b614be060606157ac565b90506000614bf084828501614abc565b6000830152506020614c0484828501614abc565b6020830152506040614c1884828501614f90565b60408301525092915050565b60006101c08284031215614c3757600080fd5b614c4160406157ac565b90506000614c5184828501614dfe565b6000830152506101a082013567ffffffffffffffff811115614c7257600080fd5b614c7e84828501614d36565b60208301525092915050565b600060608284031215614c9c57600080fd5b614ca660606157ac565b90506000614cb684828501614f90565b6000830152506020614cca84828501614f90565b6020830152506040614cde84828501614f90565b60408301525092915050565b600060408284031215614cfc57600080fd5b614d0660406157ac565b90506000614d1684828501614f90565b6000830152506020614d2a84828501614f90565b60208301525092915050565b600060408284031215614d4857600080fd5b614d5260406157ac565b90506000614d6284828501614abc565b600083015250602082013567ffffffffffffffff811115614d8257600080fd5b614d8e84828501614afb565b60208301525092915050565b600060408284031215614dac57600080fd5b614db660406157ac565b90506000614dc684828501614abc565b600083015250602082013567ffffffffffffffff811115614de657600080fd5b614df284828501614afb565b60208301525092915050565b60006101a08284031215614e1157600080fd5b614e1c6101006157ac565b90506000614e2c84828501614b4f565b6000830152506020614e4084828501614b64565b6020830152506080614e5484828501614fa5565b60408301525060a0614e6884828501614cea565b60608301525060e0614e7c84828501614f90565b608083015250610100614e9184828501614f90565b60a083015250610120614ea684828501614f90565b60c083015250610140614ebb84828501614c8a565b60e08301525092915050565b60006101a08284031215614eda57600080fd5b614ee56101006157ac565b90506000614ef584828501614b4f565b6000830152506020614f0984828501614b64565b6020830152506080614f1d84828501614fa5565b60408301525060a0614f3184828501614cea565b60608301525060e0614f4584828501614f90565b608083015250610100614f5a84828501614f90565b60a083015250610120614f6f84828501614f90565b60c083015250610140614f8484828501614c8a565b60e08301525092915050565b600081359050614f9f8161596f565b92915050565b600081359050614fb481615986565b92915050565b600060208284031215614fcc57600080fd5b6000614fda84828501614ae6565b91505092915050565b60008060408385031215614ff657600080fd5b600061500485828601614ae6565b925050602083013567ffffffffffffffff81111561502157600080fd5b61502d85828601614c24565b9150509250929050565b6000806040838503121561504a57600080fd5b600061505885828601614ae6565b925050602083013567ffffffffffffffff81111561507557600080fd5b61508185828601614d9a565b9150509250929050565b60006060828403121561509d57600080fd5b60006150ab84828501614bc4565b91505092915050565b600080604083850312156150c757600080fd5b600083013567ffffffffffffffff8111156150e157600080fd5b6150ed85828601614c24565b925050602083013567ffffffffffffffff81111561510a57600080fd5b61511685828601614c24565b9150509250929050565b60006101a0828403121561513357600080fd5b600061514184828501614ec7565b91505092915050565b6000806000610360848603121561516057600080fd5b600061516e86828701614ec7565b9350506101a061518086828701614ec7565b92505061034061519286828701614ad1565b9150509250925092565b6151a58161582c565b82525050565b6151b48161582c565b82525050565b6151c38161583e565b82525050565b6151d28161584a565b82525050565b6151e96151e48261584a565b6158f2565b82525050565b60006151fa82615805565b6152048185615810565b93506152148185602086016158bf565b61521d816158fc565b840191505092915050565b6152318161589e565b82525050565b6152408161589e565b82525050565b6000615253601c83615821565b91507f19457468657265756d205369676e6564204d6573736167653a0a3332000000006000830152601c82019050919050565b60608201600082015161529c600085018261519c565b5060208201516152af602085018261519c565b5060408201516152c26040850182615570565b50505050565b6060820160008201516152de600085018261519c565b5060208201516152f1602085018261519c565b5060408201516153046040850182615570565b50505050565b60006101c08301600083015161532360008601826154cb565b5060208301518482036101a086015261533c82826153e9565b9150508091505092915050565b60608201600082015161535f6000850182615570565b5060208201516153726020850182615570565b5060408201516153856040850182615570565b50505050565b6040820160008201516153a16000850182615570565b5060208201516153b46020850182615570565b50505050565b6040820160008201516153d06000850182615570565b5060208201516153e36020850182615570565b50505050565b6000604083016000830151615401600086018261519c565b506020830151848203602086015261541982826151ef565b9150508091505092915050565b6101a08201600082015161543d6000850182615228565b50602082015161545060208501826152c8565b506040820151615463608085018261558e565b50606082015161547660a085018261538b565b50608082015161548960e0850182615570565b5060a082015161549d610100850182615570565b5060c08201516154b1610120850182615570565b5060e08201516154c5610140850182615349565b50505050565b6101a0820160008201516154e26000850182615228565b5060208201516154f560208501826152c8565b506040820151615508608085018261558e565b50606082015161551b60a085018261538b565b50608082015161552e60e0850182615570565b5060a0820151615542610100850182615570565b5060c0820151615556610120850182615570565b5060e082015161556a610140850182615349565b50505050565b61557981615887565b82525050565b61558881615887565b82525050565b61559781615891565b82525050565b6155a681615891565b82525050565b60006155b782615246565b91506155c382846151d8565b60208201915081905092915050565b60006020820190506155e760008301846151ab565b92915050565b600060208201905061560260008301846151ba565b92915050565b600060e08201905061561d60008301896151ba565b61562a60208301886151ba565b61563760408301876153ba565b61564460808301866151ba565b61565160a08301856151ba565b61565e60c08301846151ba565b979650505050505050565b600060208201905061567e60008301846151c9565b92915050565b600060808201905061569960008301876151c9565b6156a6602083018661559d565b6156b360408301856151c9565b6156c060608301846151c9565b95945050505050565b60006020820190506156de6000830184615237565b92915050565b60006060820190506156f96000830184615286565b92915050565b600060c0820190508181036000830152615719818961530a565b9050818103602083015261572d818861530a565b90508181036040830152615741818761530a565b9050615750606083018661557f565b61575d60808301856151ba565b61576a60a08301846151ba565b979650505050505050565b60006101a08201905061578b6000830184615426565b92915050565b60006020820190506157a6600083018461557f565b92915050565b6000604051905081810181811067ffffffffffffffff821117156157cf57600080fd5b8060405250919050565b600067ffffffffffffffff8211156157f057600080fd5b601f19601f8301169050602081019050919050565b600081519050919050565b600082825260208201905092915050565b600081905092915050565b600061583782615867565b9050919050565b60008115159050919050565b6000819050919050565b60008190506158628261590d565b919050565b600073ffffffffffffffffffffffffffffffffffffffff82169050919050565b6000819050919050565b600060ff82169050919050565b60006158a982615854565b9050919050565b82818337600083830152505050565b60005b838110156158dd5780820151818401526020810190506158c2565b838111156158ec576000848401525b50505050565b6000819050919050565b6000601f19601f8301169050919050565b6005811061591757fe5b50565b6159238161582c565b811461592e57600080fd5b50565b61593a8161583e565b811461594557600080fd5b50565b6159518161584a565b811461595c57600080fd5b50565b6005811061596c57600080fd5b50565b61597881615887565b811461598357600080fd5b50565b61598f81615891565b811461599a57600080fd5b5056fea365627a7a7231582056abdc067a1a38c76467b9a76d0e0533ac05e570c5246686b9d9e85654e5201c6c6578706572696d656e74616cf564736f6c63430005100040",
  "source": "pragma solidity >=0.4.21 <0.7.0;\npragma experimental ABIEncoderV2;\n\nimport './ECDSA.sol';\n\ncontract Adjudicator {\n    address public owner;\n\n    // @dev Represents a channel unique for every game\n    struct Channel {\n        address alice;\n        address bob;\n        uint256 channelNonce;\n    }\n\n    // TODO: Add new states to the state machine. Bruh...\n    enum StateType {\n        PRE_FUND_SETUP,\n        POST_FUND_SETUP,\n        GAME_PROPOSE,\n        GAME_ACCEPT,\n        CONCLUDE\n    }\n\n    function returnValue() public pure returns (StateType) {\n        return StateType.POST_FUND_SETUP;\n    }\n\n    // @dev Amounts bid by the players\n    struct Resolution {\n        uint aliceAmount;\n        uint bobAmount;\n    }\n\n    struct Play {\n        uint totalLetterCount;\n        uint opponentTotalLetterCount;\n        uint gameLetterCount;\n    }\n\n    // @dev Single state instance - Unique for every move\n    struct State {\n        StateType stateType;\n        Channel channel;\n        uint8 turnNum;\n        Resolution resolution;\n        uint timestamp;\n        // Timestamp of opponent's last move\n        uint opponent_timestamp;\n        // Amount staked in this turn\n        uint stake;\n        Play play;\n    }\n\n    // @dev Initial fund deposited in contract for channel\n    struct ChannelFund {\n        bool hasAliceFunded;\n        bool hasBobFunded;\n        Resolution resolution;\n        bool isSet;\n        bool isFunded;\n        bool isWithdrawn;\n    }\n\n    struct Signature {\n        address signer;\n        bytes signature;\n    }\n\n    // @dev State with signature of the hashed state\n    struct Move {\n        State state;\n        Signature signature;\n    }\n\n    struct Challenge {\n        Move challengerMove;\n        Move opponentMove;\n        Move respondedMove;\n        uint timestamp;\n        bool isExpired;\n        bool isSet;\n    }\n\n    // @dev Mapping of channel Hashes to corresponding funds\n    mapping(bytes32 => ChannelFund) public channelFunds;\n    // @dev Mapping of channel Hashes to registered Challenges\n    mapping(bytes32 => Challenge) public challenges;\n\n    uint public challengeExpirationLimit = 3;\n\n    /**\n     * @dev Helper function to compute hash of a channel object\n     * @param channel Channel, Channel object to be hashed\n     */\n    function hash(Channel memory channel) pure public returns (bytes32) {\n        return keccak256(abi.encode(channel));\n    }\n\n    /**\n     * @dev Helper function to compute hash of a state object\n     * @param state State, State object to be hashed\n     */\n    function hash(State memory state) pure public returns (bytes32) {\n        return keccak256(abi.encode(state));\n    }\n\n    /**\n     * @dev Helper function to check if a given signature is valid for a message hash\n     * @param messageHash bytes32, ABI encoded Keccak256 Hash of message/object signed\n     * @param signature Signature, Signature and signer data for the given message hash\n     */\n    using ECDSA for bytes32;\n    function isSigned(bytes32 messageHash, Signature memory signature) public pure returns (bool) {\n        return (messageHash.toEthSignedMessageHash().recover(signature.signature) == signature.signer);\n    }\n\n    /**\n     * @dev Initiate a new channel using signed prefund setup messages\n     * @param preFundSetup Move, Signed move by msg.sender for prefund setup\n     * @param preFundSetupAck Signature, Signed move by opponent for prefund setup\n     */\n    function createChannel(Move memory preFundSetup, Move memory preFundSetupAck) public payable {\n        require(validMove(preFundSetup, preFundSetupAck));\n\n        bool aliceBegan = (\n        preFundSetup.signature.signer == preFundSetup.state.channel.alice\n        && preFundSetupAck.signature.signer == preFundSetup.state.channel.bob\n        && preFundSetup.signature.signer == msg.sender\n        );\n\n        Channel memory channel = preFundSetup.state.channel;\n        bytes32 channelHash = hash(channel);\n\n        if (aliceBegan) {\n            require(msg.value == preFundSetup.state.resolution.aliceAmount);\n        } else {\n            require(msg.value == preFundSetup.state.resolution.bobAmount);\n        }\n\n        if (channelFunds[channelHash].isSet) {\n            if (aliceBegan) {\n                require(channelFunds[channelHash].hasAliceFunded == false);\n                channelFunds[channelHash].hasAliceFunded = true;\n                channelFunds[channelHash].resolution.aliceAmount = msg.value;\n                channelFunds[channelHash].isFunded = true;\n            } else {\n                require(channelFunds[channelHash].hasBobFunded == false);\n                channelFunds[channelHash].hasBobFunded = true;\n                channelFunds[channelHash].resolution.bobAmount = msg.value;\n                channelFunds[channelHash].isFunded = true;\n            }\n        } else {\n            channelFunds[channelHash].isSet = true;\n            if (aliceBegan) {\n                channelFunds[channelHash].hasAliceFunded = true;\n                channelFunds[channelHash].hasBobFunded = false;\n                channelFunds[channelHash].resolution.aliceAmount = msg.value;\n                channelFunds[channelHash].resolution.bobAmount = 0;\n            } else {\n                channelFunds[channelHash].hasAliceFunded = false;\n                channelFunds[channelHash].hasBobFunded = true;\n                channelFunds[channelHash].resolution.aliceAmount = 0;\n                channelFunds[channelHash].resolution.bobAmount = msg.value;\n            }\n        }\n    }\n\n    /**\n     * @dev Check if two state in succession are valid\n     * @param fromState State, First State\n     * @param toState State, state immediately succeeding fromState\n     */\n    function validTransition(State memory fromState, State memory toState, bool isAlice) public view returns (bool) {\n        require(hash(fromState.channel) == hash(toState.channel));\n\n        // TODO: Define ordering on the transactions i.e., GamePropose by Alice, GameAccept by Bob\n\n        bool isValid = true;\n        bytes32 channelHash = hash(fromState.channel);\n\n        if (fromState.stateType != StateType.PRE_FUND_SETUP) {\n            isValid = isValid && (toState.timestamp >= fromState.timestamp);\n            isValid = isValid && (toState.opponent_timestamp == fromState.timestamp);\n        }\n        // Control how early the timestamp can be set by a malicious user\n        isValid = isValid && (toState.timestamp >= (now - 60));\n        isValid = isValid && (toState.timestamp <= (now + 60));\n        isValid = isValid && (toState.play.gameLetterCount == fromState.play.gameLetterCount);\n        isValid = isValid && (toState.play.opponentTotalLetterCount == fromState.play.totalLetterCount);\n        isValid = isValid && (toState.timestamp >= fromState.timestamp);\n\n        if (fromState.stateType == StateType.PRE_FUND_SETUP) {\n            if (toState.stateType == StateType.PRE_FUND_SETUP) {\n                isValid = isValid && (fromState.turnNum == toState.turnNum);\n                isValid = isValid && (fromState.resolution.aliceAmount == toState.resolution.aliceAmount);\n                isValid = isValid && (fromState.resolution.bobAmount == toState.resolution.bobAmount);\n                isValid = isValid && (!isAlice);\n            } else if (toState.stateType == StateType.POST_FUND_SETUP) {\n                isValid = isValid && (channelFunds[channelHash].isSet == true);\n                isValid = isValid && (channelFunds[channelHash].isFunded == true);\n                isValid = isValid && (fromState.turnNum == toState.turnNum);\n                isValid = isValid && (fromState.resolution.aliceAmount == toState.resolution.aliceAmount);\n                isValid = isValid && (fromState.resolution.bobAmount == toState.resolution.bobAmount);\n                isValid = isValid && (isAlice);\n            } else if (toState.stateType == StateType.CONCLUDE) {\n                isValid = isValid && (fromState.resolution.aliceAmount == toState.resolution.aliceAmount);\n                isValid = isValid && (fromState.resolution.bobAmount == toState.resolution.bobAmount);\n                isValid = isValid && (isAlice);\n            } else {\n                isValid = false;\n            }\n        } else if (fromState.stateType == StateType.POST_FUND_SETUP) {\n            if (toState.stateType == StateType.POST_FUND_SETUP) {\n                isValid = isValid && (channelFunds[channelHash].isSet == true);\n                isValid = isValid && (channelFunds[channelHash].isFunded == true);\n                isValid = isValid && (fromState.turnNum == toState.turnNum);\n                isValid = isValid && (fromState.resolution.aliceAmount == toState.resolution.aliceAmount);\n                isValid = isValid && (fromState.resolution.bobAmount == toState.resolution.bobAmount);\n                isValid = isValid && (!isAlice);\n            } else if (toState.stateType == StateType.GAME_PROPOSE) {\n                isValid = isValid && (fromState.turnNum < toState.turnNum);\n                isValid = isValid && (fromState.resolution.aliceAmount == toState.resolution.aliceAmount);\n                isValid = isValid && (fromState.resolution.bobAmount == toState.resolution.bobAmount);\n                isValid = isValid && (toState.stake > 0);\n                isValid = isValid && (toState.stake <= toState.resolution.aliceAmount);\n                isValid = isValid && (toState.stake <= toState.resolution.bobAmount);\n                isValid = isValid && (toState.play.totalLetterCount > 0);\n                isValid = isValid && (toState.play.totalLetterCount < fromState.play.gameLetterCount);\n                isValid = isValid && (fromState.play.totalLetterCount < fromState.play.gameLetterCount);\n                isValid = isValid && (toState.stake <= toState.resolution.bobAmount);\n                isValid = isValid && (toState.stake <= toState.resolution.bobAmount);\n                isValid = isValid && (isAlice);\n            } else if (toState.stateType == StateType.CONCLUDE) {\n                isValid = isValid && (fromState.turnNum < toState.turnNum);\n                isValid = isValid && (fromState.resolution.aliceAmount == toState.resolution.aliceAmount);\n                isValid = isValid && (fromState.resolution.bobAmount == toState.resolution.bobAmount);\n                isValid = isValid && (isAlice);\n            } else {\n                isValid = false;\n            }\n        } else if (fromState.stateType == StateType.GAME_PROPOSE) {\n            // TODO: Add POST_FUND and POST_FUND_ACK\n            if (toState.stateType == StateType.GAME_ACCEPT) {\n                isValid = isValid && (fromState.turnNum == toState.turnNum);\n                isValid = isValid && (fromState.stake == toState.stake);\n                isValid = isValid && (fromState.timestamp == toState.timestamp);\n                isValid = isValid && (toState.play.totalLetterCount > 0);\n\n                uint256 finalAliceAmount;\n                uint256 finalBobAmount;\n                if (fromState.play.totalLetterCount > toState.play.totalLetterCount) {\n                    if (isAlice == false) {\n                        finalAliceAmount = (fromState.resolution.aliceAmount + fromState.stake);\n                        finalBobAmount = (fromState.resolution.bobAmount - fromState.stake);\n                    } else {\n                        finalAliceAmount = (fromState.resolution.aliceAmount - fromState.stake);\n                        finalBobAmount = (fromState.resolution.bobAmount + fromState.stake);\n                    }\n                } else if (fromState.play.totalLetterCount < toState.play.totalLetterCount) {\n                    if (isAlice == false) {\n                        finalAliceAmount = (fromState.resolution.aliceAmount - fromState.stake);\n                        finalBobAmount = (fromState.resolution.bobAmount + fromState.stake);\n                    } else {\n                        finalAliceAmount = (fromState.resolution.aliceAmount + fromState.stake);\n                        finalBobAmount = (fromState.resolution.bobAmount - fromState.stake);\n                    }\n                } else {\n                    finalAliceAmount = fromState.resolution.aliceAmount;\n                    finalBobAmount = fromState.resolution.bobAmount;\n                }\n                isValid = isValid && (toState.resolution.aliceAmount == finalAliceAmount);\n                isValid = isValid && (toState.resolution.bobAmount == finalBobAmount);\n                isValid = isValid && (!isAlice);\n            } else {\n                isValid = false;\n            }\n        } else if (fromState.stateType == StateType.GAME_ACCEPT) {\n            isValid = isValid && (fromState.turnNum < toState.turnNum);\n            isValid = isValid && (fromState.resolution.aliceAmount == toState.resolution.aliceAmount);\n            isValid = isValid && (fromState.resolution.bobAmount == toState.resolution.bobAmount);\n            isValid = isValid && (toState.play.totalLetterCount > 0);\n\n            if (toState.stateType == StateType.GAME_PROPOSE) {\n                isValid = isValid && (toState.stake > 0);\n                isValid = isValid && (toState.stake <= toState.resolution.aliceAmount);\n                isValid = isValid && (toState.stake <= toState.resolution.bobAmount);\n\n                isValid = isValid && (toState.play.totalLetterCount < toState.play.gameLetterCount);\n                isValid = isValid && (toState.play.opponentTotalLetterCount < toState.play.gameLetterCount);\n                isValid = isValid && (isAlice);\n            } else if (toState.stateType == StateType.CONCLUDE) {\n                isValid = isValid && (\n                (toState.play.totalLetterCount == toState.play.gameLetterCount)\n                || (toState.play.opponentTotalLetterCount == toState.play.gameLetterCount));\n                isValid = isValid && (fromState.play.opponentTotalLetterCount == toState.play.totalLetterCount);\n                isValid = isValid && (fromState.play.totalLetterCount == toState.play.opponentTotalLetterCount);\n                isValid = isValid && (isAlice);\n            } else {\n                isValid = false;\n            }\n        } else if (fromState.stateType == StateType.CONCLUDE) {\n            isValid = isValid && (fromState.turnNum == toState.turnNum);\n            isValid = isValid && (fromState.resolution.aliceAmount == toState.resolution.aliceAmount);\n            isValid = isValid && (fromState.resolution.bobAmount == toState.resolution.bobAmount);\n            isValid = isValid && (fromState.play.opponentTotalLetterCount == toState.play.totalLetterCount);\n            isValid = isValid && (fromState.play.totalLetterCount == toState.play.opponentTotalLetterCount);\n            isValid = isValid && (toState.stake == 0);\n            isValid = isValid && (!isAlice);\n\n            if (toState.stateType != StateType.CONCLUDE) {\n                isValid = false;\n            }\n        } else {\n            isValid = false;\n        }\n\n        return isValid;\n    }\n\n    /**\n     * @dev Given previous move, check if next move is valid\n     * @param opponentMove Move, Opponent participant's move\n     * @param selfMove Move, Move to be validated\n     */\n    function validMove(Move memory opponentMove, Move memory selfMove) public view returns (bool) {\n        require(isSigned(hash(opponentMove.state), opponentMove.signature) && isSigned(hash(selfMove.state), selfMove.signature));\n        require(\n            (opponentMove.signature.signer == opponentMove.state.channel.alice\n            && selfMove.signature.signer == selfMove.state.channel.bob)\n            || (opponentMove.signature.signer == opponentMove.state.channel.bob\n            && selfMove.signature.signer == selfMove.state.channel.alice)\n        );\n\n        bool isAlice = (selfMove.signature.signer == selfMove.state.channel.alice);\n\n        return validTransition(opponentMove.state, selfMove.state, isAlice);\n    }\n\n    /**\n     * @dev On Chain transaction to force another participant to make the next move.\n     *      Used when opponent does not respond or responds with an invalid move.\n     * @param opponentMove Move, Last signed move of opponent\n     * @param selfMove Move, Next move of the sender which opponent does not respond to\n     */\n    function forceMove(Move memory opponentMove, Move memory selfMove) public {\n        require(selfMove.signature.signer == msg.sender);\n        require(validMove(opponentMove, selfMove));\n        require(opponentMove.state.stateType != StateType.CONCLUDE);\n\n        bytes32 channelHash = hash(opponentMove.state.channel);\n        Challenge memory challenge = challenges[channelHash];\n\n        require(challenge.isSet == false);\n\n        challenge.challengerMove = selfMove;\n        challenge.opponentMove = opponentMove;\n        challenge.timestamp = now;\n        challenge.isExpired = false;\n        challenge.isSet = true;\n\n        challenges[channelHash] = challenge;\n    }\n\n    function respondWithMove(bytes32 channelHash, Move memory respondMove) public {\n        require(respondMove.signature.signer == msg.sender);\n\n        Challenge memory challenge = challenges[channelHash];\n        require(challenge.isSet == true);\n\n        // Check if expired\n        if (now >= (challenge.timestamp + challengeExpirationLimit)) {\n            challenge.isExpired = true;\n            challenges[channelHash].isExpired = true;\n        }\n        require(challenge.isExpired == false);\n\n        require(validMove(challenge.challengerMove, respondMove));\n\n        challenges[channelHash].respondedMove = respondMove;\n        challenges[channelHash].isSet = false;\n    }\n\n    /**\n     * @dev Return funds in case opponent does not submit funds but signs preFund setup\n     * @param channelHash bytes32, Channel whose challenge is to be redeemed\n     */\n    function redeemResolution(bytes32 channelHash) public {\n        Challenge memory challenge = challenges[channelHash];\n        require(challenge.isSet == true);\n\n        // Check if expired\n        if (now >= (challenge.timestamp + challengeExpirationLimit)) {\n            challenge.isExpired = true;\n            challenges[channelHash].isExpired = true;\n        }\n\n        require(challenge.isExpired == true);\n\n        Resolution memory resolution = challenge.opponentMove.state.resolution;\n\n        if (challenge.opponentMove.state.stateType == StateType.PRE_FUND_SETUP) {\n            resolution = channelFunds[channelHash].resolution;\n        }\n\n        require(\n            (resolution.aliceAmount + resolution.bobAmount)\n            == (channelFunds[channelHash].resolution.aliceAmount + channelFunds[channelHash].resolution.bobAmount)\n        );\n\n        Channel memory channel = challenge.opponentMove.state.channel;\n\n        address payable alice = address(uint160(channel.alice));\n        address payable bob = address(uint160(channel.bob));\n\n        alice.transfer(resolution.aliceAmount);\n        bob.transfer(resolution.bobAmount);\n\n        channelFunds[channelHash].isWithdrawn = true;\n    }\n\n    /**\n     * @dev Withdraw funds at the end of a cooperative game\n     * @param concludeAlice Move, Conclude move of Alice\n     * @param concludeBob Move, Conclude move of Bob\n     */\n    function withdrawFunds(Move memory concludeAlice, Move memory concludeBob) public {\n        require(validMove(concludeAlice, concludeBob));\n\n        Channel memory channel = concludeAlice.state.channel;\n        bytes32 channelHash = hash(channel);\n        require(channelFunds[channelHash].isSet == true);\n        require(channelFunds[channelHash].isFunded == true);\n\n        channelFunds[channelHash].isWithdrawn = true;\n\n        require(\n            (concludeAlice.state.resolution.aliceAmount + concludeAlice.state.resolution.bobAmount)\n            == (channelFunds[channelHash].resolution.aliceAmount + channelFunds[channelHash].resolution.bobAmount)\n        );\n\n        address payable alice = address(uint160(channel.alice));\n        address payable bob = address(uint160(channel.bob));\n\n        alice.transfer(concludeAlice.state.resolution.aliceAmount);\n        bob.transfer(concludeAlice.state.resolution.bobAmount);\n    }\n}\n",
  "sourcePath": "/home/sai/code/type-fighter/contracts/Adjudicator.sol",
  "compiler": {
    "name": "solc",
    "version": "0.5.16+commit.9c3226ce.Emscripten.clang"
  },
  "schemaVersion": "3.2.0",
  "updatedAt": "2020-07-26T06:10:03.172Z",
  "networkType": "ethereum",
  "devdoc": {
    "methods": {
      "createChannel(((uint8,(address,address,uint256),uint8,(uint256,uint256),uint256,uint256,uint256,(uint256,uint256,uint256)),(address,bytes)),((uint8,(address,address,uint256),uint8,(uint256,uint256),uint256,uint256,uint256,(uint256,uint256,uint256)),(address,bytes)))": {
        "details": "Initiate a new channel using signed prefund setup messages",
        "params": {
          "preFundSetup": "Move, Signed move by msg.sender for prefund setup",
          "preFundSetupAck": "Signature, Signed move by opponent for prefund setup"
        }
      },
      "forceMove(((uint8,(address,address,uint256),uint8,(uint256,uint256),uint256,uint256,uint256,(uint256,uint256,uint256)),(address,bytes)),((uint8,(address,address,uint256),uint8,(uint256,uint256),uint256,uint256,uint256,(uint256,uint256,uint256)),(address,bytes)))": {
        "details": "On Chain transaction to force another participant to make the next move.     Used when opponent does not respond or responds with an invalid move.",
        "params": {
          "opponentMove": "Move, Last signed move of opponent",
          "selfMove": "Move, Next move of the sender which opponent does not respond to"
        }
      },
      "hash((address,address,uint256))": {
        "details": "Helper function to compute hash of a channel object",
        "params": {
          "channel": "Channel, Channel object to be hashed"
        }
      },
      "hash((uint8,(address,address,uint256),uint8,(uint256,uint256),uint256,uint256,uint256,(uint256,uint256,uint256)))": {
        "details": "Helper function to compute hash of a state object",
        "params": {
          "state": "State, State object to be hashed"
        }
      },
      "redeemResolution(bytes32)": {
        "details": "Return funds in case opponent does not submit funds but signs preFund setup",
        "params": {
          "channelHash": "bytes32, Channel whose challenge is to be redeemed"
        }
      },
      "validMove(((uint8,(address,address,uint256),uint8,(uint256,uint256),uint256,uint256,uint256,(uint256,uint256,uint256)),(address,bytes)),((uint8,(address,address,uint256),uint8,(uint256,uint256),uint256,uint256,uint256,(uint256,uint256,uint256)),(address,bytes)))": {
        "details": "Given previous move, check if next move is valid",
        "params": {
          "opponentMove": "Move, Opponent participant's move",
          "selfMove": "Move, Move to be validated"
        }
      },
      "validTransition((uint8,(address,address,uint256),uint8,(uint256,uint256),uint256,uint256,uint256,(uint256,uint256,uint256)),(uint8,(address,address,uint256),uint8,(uint256,uint256),uint256,uint256,uint256,(uint256,uint256,uint256)),bool)": {
        "details": "Check if two state in succession are valid",
        "params": {
          "fromState": "State, First State",
          "toState": "State, state immediately succeeding fromState"
        }
      },
      "withdrawFunds(((uint8,(address,address,uint256),uint8,(uint256,uint256),uint256,uint256,uint256,(uint256,uint256,uint256)),(address,bytes)),((uint8,(address,address,uint256),uint8,(uint256,uint256),uint256,uint256,uint256,(uint256,uint256,uint256)),(address,bytes)))": {
        "details": "Withdraw funds at the end of a cooperative game",
        "params": {
          "concludeAlice": "Move, Conclude move of Alice",
          "concludeBob": "Move, Conclude move of Bob"
        }
      }
    }
  },
  "userdoc": {
    "methods": {}
  }
}